{
  "contractName": "RewardPool",
  "abi": [
    {
      "inputs": [
        {
          "internalType": "contract KeyfiToken",
          "name": "_rewardToken",
          "type": "address"
        },
        {
          "internalType": "uint256",
          "name": "_rewardPerBlock",
          "type": "uint256"
        },
        {
          "internalType": "uint256",
          "name": "_startBlock",
          "type": "uint256"
        },
        {
          "internalType": "uint256",
          "name": "_bonusEndBlock",
          "type": "uint256"
        },
        {
          "internalType": "uint256",
          "name": "_bonusMultiplier",
          "type": "uint256"
        },
        {
          "internalType": "uint256",
          "name": "_launchDate",
          "type": "uint256"
        }
      ],
      "stateMutability": "nonpayable",
      "type": "constructor"
    },
    {
      "anonymous": false,
      "inputs": [
        {
          "indexed": true,
          "internalType": "address",
          "name": "user",
          "type": "address"
        },
        {
          "indexed": true,
          "internalType": "uint256",
          "name": "pid",
          "type": "uint256"
        },
        {
          "indexed": false,
          "internalType": "uint256",
          "name": "amount",
          "type": "uint256"
        }
      ],
      "name": "Deposit",
      "type": "event"
    },
    {
      "anonymous": false,
      "inputs": [
        {
          "indexed": true,
          "internalType": "address",
          "name": "user",
          "type": "address"
        },
        {
          "indexed": true,
          "internalType": "uint256",
          "name": "pid",
          "type": "uint256"
        },
        {
          "indexed": false,
          "internalType": "uint256",
          "name": "amount",
          "type": "uint256"
        }
      ],
      "name": "EmergencyWithdraw",
      "type": "event"
    },
    {
      "anonymous": false,
      "inputs": [],
      "name": "InsufficientRewardpool",
      "type": "event"
    },
    {
      "anonymous": false,
      "inputs": [
        {
          "indexed": true,
          "internalType": "address",
          "name": "previousOwner",
          "type": "address"
        },
        {
          "indexed": true,
          "internalType": "address",
          "name": "newOwner",
          "type": "address"
        }
      ],
      "name": "OwnershipTransferred",
      "type": "event"
    },
    {
      "anonymous": false,
      "inputs": [
        {
          "indexed": false,
          "internalType": "uint256",
          "name": "previousRate",
          "type": "uint256"
        },
        {
          "indexed": false,
          "internalType": "uint256",
          "name": "newRate",
          "type": "uint256"
        }
      ],
      "name": "RewardPerBlockChanged",
      "type": "event"
    },
    {
      "anonymous": false,
      "inputs": [
        {
          "indexed": false,
          "internalType": "address",
          "name": "token",
          "type": "address"
        },
        {
          "indexed": false,
          "internalType": "uint256",
          "name": "allocPoints",
          "type": "uint256"
        }
      ],
      "name": "SetAllocPoint",
      "type": "event"
    },
    {
      "anonymous": false,
      "inputs": [
        {
          "indexed": true,
          "internalType": "address",
          "name": "user",
          "type": "address"
        },
        {
          "indexed": true,
          "internalType": "address",
          "name": "newAddress",
          "type": "address"
        }
      ],
      "name": "SetFeeAddressA",
      "type": "event"
    },
    {
      "anonymous": false,
      "inputs": [
        {
          "indexed": true,
          "internalType": "address",
          "name": "user",
          "type": "address"
        },
        {
          "indexed": true,
          "internalType": "address",
          "name": "newAddress",
          "type": "address"
        }
      ],
      "name": "SetFeeAddressB",
      "type": "event"
    },
    {
      "anonymous": false,
      "inputs": [
        {
          "indexed": true,
          "internalType": "address",
          "name": "token",
          "type": "address"
        },
        {
          "indexed": false,
          "internalType": "uint256",
          "name": "allocPoints",
          "type": "uint256"
        }
      ],
      "name": "TokenAdded",
      "type": "event"
    },
    {
      "anonymous": false,
      "inputs": [
        {
          "indexed": true,
          "internalType": "address",
          "name": "token",
          "type": "address"
        }
      ],
      "name": "TokenRemoved",
      "type": "event"
    },
    {
      "anonymous": false,
      "inputs": [
        {
          "indexed": true,
          "internalType": "address",
          "name": "user",
          "type": "address"
        },
        {
          "indexed": true,
          "internalType": "uint256",
          "name": "pid",
          "type": "uint256"
        },
        {
          "indexed": false,
          "internalType": "uint256",
          "name": "amount",
          "type": "uint256"
        }
      ],
      "name": "Withdraw",
      "type": "event"
    },
    {
      "anonymous": false,
      "inputs": [
        {
          "indexed": true,
          "internalType": "address",
          "name": "user",
          "type": "address"
        },
        {
          "indexed": false,
          "internalType": "uint256",
          "name": "amount",
          "type": "uint256"
        }
      ],
      "name": "WithdrawRewards",
      "type": "event"
    },
    {
      "inputs": [],
      "name": "bonusEndBlock",
      "outputs": [
        {
          "internalType": "uint256",
          "name": "",
          "type": "uint256"
        }
      ],
      "stateMutability": "view",
      "type": "function",
      "constant": true
    },
    {
      "inputs": [],
      "name": "bonusMultiplier",
      "outputs": [
        {
          "internalType": "uint256",
          "name": "",
          "type": "uint256"
        }
      ],
      "stateMutability": "view",
      "type": "function",
      "constant": true
    },
    {
      "inputs": [],
      "name": "feeAddA",
      "outputs": [
        {
          "internalType": "address",
          "name": "",
          "type": "address"
        }
      ],
      "stateMutability": "view",
      "type": "function",
      "constant": true
    },
    {
      "inputs": [],
      "name": "feeAddB",
      "outputs": [
        {
          "internalType": "address",
          "name": "",
          "type": "address"
        }
      ],
      "stateMutability": "view",
      "type": "function",
      "constant": true
    },
    {
      "inputs": [],
      "name": "launchDate",
      "outputs": [
        {
          "internalType": "uint256",
          "name": "",
          "type": "uint256"
        }
      ],
      "stateMutability": "view",
      "type": "function",
      "constant": true
    },
    {
      "inputs": [],
      "name": "owner",
      "outputs": [
        {
          "internalType": "address",
          "name": "",
          "type": "address"
        }
      ],
      "stateMutability": "view",
      "type": "function",
      "constant": true
    },
    {
      "inputs": [],
      "name": "renounceOwnership",
      "outputs": [],
      "stateMutability": "nonpayable",
      "type": "function"
    },
    {
      "inputs": [],
      "name": "rewardPerBlock",
      "outputs": [
        {
          "internalType": "uint256",
          "name": "",
          "type": "uint256"
        }
      ],
      "stateMutability": "view",
      "type": "function",
      "constant": true
    },
    {
      "inputs": [],
      "name": "rewardToken",
      "outputs": [
        {
          "internalType": "contract KeyfiToken",
          "name": "",
          "type": "address"
        }
      ],
      "stateMutability": "view",
      "type": "function",
      "constant": true
    },
    {
      "inputs": [
        {
          "internalType": "address",
          "name": "",
          "type": "address"
        }
      ],
      "name": "stakingTokenIndexes",
      "outputs": [
        {
          "internalType": "uint256",
          "name": "index",
          "type": "uint256"
        },
        {
          "internalType": "bool",
          "name": "added",
          "type": "bool"
        }
      ],
      "stateMutability": "view",
      "type": "function",
      "constant": true
    },
    {
      "inputs": [
        {
          "internalType": "uint256",
          "name": "",
          "type": "uint256"
        }
      ],
      "name": "stakingTokens",
      "outputs": [
        {
          "internalType": "contract IERC20",
          "name": "stakingToken",
          "type": "address"
        },
        {
          "internalType": "uint256",
          "name": "allocPoint",
          "type": "uint256"
        },
        {
          "internalType": "uint256",
          "name": "lastRewardBlock",
          "type": "uint256"
        },
        {
          "internalType": "uint256",
          "name": "accRewardPerShare",
          "type": "uint256"
        },
        {
          "internalType": "uint256",
          "name": "totalStake",
          "type": "uint256"
        },
        {
          "internalType": "uint16",
          "name": "depositFeeBP",
          "type": "uint16"
        }
      ],
      "stateMutability": "view",
      "type": "function",
      "constant": true
    },
    {
      "inputs": [],
      "name": "startBlock",
      "outputs": [
        {
          "internalType": "uint256",
          "name": "",
          "type": "uint256"
        }
      ],
      "stateMutability": "view",
      "type": "function",
      "constant": true
    },
    {
      "inputs": [],
      "name": "totalAllocPoint",
      "outputs": [
        {
          "internalType": "uint256",
          "name": "",
          "type": "uint256"
        }
      ],
      "stateMutability": "view",
      "type": "function",
      "constant": true
    },
    {
      "inputs": [
        {
          "internalType": "address",
          "name": "newOwner",
          "type": "address"
        }
      ],
      "name": "transferOwnership",
      "outputs": [],
      "stateMutability": "nonpayable",
      "type": "function"
    },
    {
      "inputs": [
        {
          "internalType": "uint256",
          "name": "",
          "type": "uint256"
        },
        {
          "internalType": "address",
          "name": "",
          "type": "address"
        }
      ],
      "name": "userInfo",
      "outputs": [
        {
          "internalType": "uint256",
          "name": "amount",
          "type": "uint256"
        },
        {
          "internalType": "uint256",
          "name": "rewardDebt",
          "type": "uint256"
        }
      ],
      "stateMutability": "view",
      "type": "function",
      "constant": true
    },
    {
      "inputs": [],
      "name": "stakingTokensCount",
      "outputs": [
        {
          "internalType": "uint256",
          "name": "",
          "type": "uint256"
        }
      ],
      "stateMutability": "view",
      "type": "function",
      "constant": true
    },
    {
      "inputs": [
        {
          "internalType": "uint256",
          "name": "_allocPoint",
          "type": "uint256"
        },
        {
          "internalType": "contract IERC20",
          "name": "_stakingToken",
          "type": "address"
        },
        {
          "internalType": "uint16",
          "name": "_depositFeeBP",
          "type": "uint16"
        }
      ],
      "name": "addStakingToken",
      "outputs": [],
      "stateMutability": "nonpayable",
      "type": "function"
    },
    {
      "inputs": [
        {
          "internalType": "contract IERC20",
          "name": "_token",
          "type": "address"
        }
      ],
      "name": "isStakingToken",
      "outputs": [
        {
          "internalType": "bool",
          "name": "",
          "type": "bool"
        }
      ],
      "stateMutability": "view",
      "type": "function",
      "constant": true
    },
    {
      "inputs": [
        {
          "internalType": "contract IERC20",
          "name": "_token",
          "type": "address"
        },
        {
          "internalType": "uint256",
          "name": "_allocPoint",
          "type": "uint256"
        },
        {
          "internalType": "uint16",
          "name": "_depositFeeBP",
          "type": "uint16"
        }
      ],
      "name": "setAllocPoint",
      "outputs": [],
      "stateMutability": "nonpayable",
      "type": "function"
    },
    {
      "inputs": [
        {
          "internalType": "uint256",
          "name": "_newRate",
          "type": "uint256"
        }
      ],
      "name": "setRewardPerBlock",
      "outputs": [],
      "stateMutability": "nonpayable",
      "type": "function"
    },
    {
      "inputs": [
        {
          "internalType": "uint256",
          "name": "_from",
          "type": "uint256"
        },
        {
          "internalType": "uint256",
          "name": "_to",
          "type": "uint256"
        }
      ],
      "name": "getMultiplier",
      "outputs": [
        {
          "internalType": "uint256",
          "name": "",
          "type": "uint256"
        }
      ],
      "stateMutability": "view",
      "type": "function",
      "constant": true
    },
    {
      "inputs": [
        {
          "internalType": "contract IERC20",
          "name": "_token",
          "type": "address"
        },
        {
          "internalType": "address",
          "name": "_user",
          "type": "address"
        }
      ],
      "name": "pendingReward",
      "outputs": [
        {
          "internalType": "uint256",
          "name": "",
          "type": "uint256"
        }
      ],
      "stateMutability": "view",
      "type": "function",
      "constant": true
    },
    {
      "inputs": [],
      "name": "massUpdateTokens",
      "outputs": [],
      "stateMutability": "nonpayable",
      "type": "function"
    },
    {
      "inputs": [
        {
          "internalType": "uint256",
          "name": "_pid",
          "type": "uint256"
        }
      ],
      "name": "checkpoint",
      "outputs": [],
      "stateMutability": "nonpayable",
      "type": "function"
    },
    {
      "inputs": [
        {
          "internalType": "contract IERC20",
          "name": "_token",
          "type": "address"
        }
      ],
      "name": "getBalance",
      "outputs": [
        {
          "internalType": "uint256",
          "name": "",
          "type": "uint256"
        }
      ],
      "stateMutability": "view",
      "type": "function",
      "constant": true
    },
    {
      "inputs": [
        {
          "internalType": "contract IERC20",
          "name": "_token",
          "type": "address"
        },
        {
          "internalType": "uint256",
          "name": "_amount",
          "type": "uint256"
        }
      ],
      "name": "deposit",
      "outputs": [],
      "stateMutability": "nonpayable",
      "type": "function"
    },
    {
      "inputs": [
        {
          "internalType": "contract IERC20",
          "name": "_token",
          "type": "address"
        },
        {
          "internalType": "uint256",
          "name": "_amount",
          "type": "uint256"
        }
      ],
      "name": "withdraw",
      "outputs": [],
      "stateMutability": "nonpayable",
      "type": "function"
    },
    {
      "inputs": [
        {
          "internalType": "contract IERC20",
          "name": "_token",
          "type": "address"
        }
      ],
      "name": "withdrawRewards",
      "outputs": [],
      "stateMutability": "nonpayable",
      "type": "function"
    },
    {
      "inputs": [
        {
          "internalType": "contract IERC20",
          "name": "_token",
          "type": "address"
        }
      ],
      "name": "emergencyWithdraw",
      "outputs": [],
      "stateMutability": "nonpayable",
      "type": "function"
    },
    {
      "inputs": [],
      "name": "getAvailableRewardBalance",
      "outputs": [
        {
          "internalType": "uint256",
          "name": "",
          "type": "uint256"
        }
      ],
      "stateMutability": "view",
      "type": "function",
      "constant": true
    },
    {
      "inputs": [],
      "name": "rewardBlocksLeft",
      "outputs": [
        {
          "internalType": "uint256",
          "name": "",
          "type": "uint256"
        }
      ],
      "stateMutability": "view",
      "type": "function",
      "constant": true
    },
    {
      "inputs": [
        {
          "internalType": "address",
          "name": "_feeAddress",
          "type": "address"
        }
      ],
      "name": "setFeeAddressA",
      "outputs": [],
      "stateMutability": "nonpayable",
      "type": "function"
    },
    {
      "inputs": [
        {
          "internalType": "address",
          "name": "_feeAddress",
          "type": "address"
        }
      ],
      "name": "setFeeAddressB",
      "outputs": [],
      "stateMutability": "nonpayable",
      "type": "function"
    }
  ],
  "bytecode": "0x60e060405273bff76b1ab7a545edb58feb4068a5737aaf3a102c600260006101000a81548173ffffffffffffffffffffffffffffffffffffffff021916908373ffffffffffffffffffffffffffffffffffffffff160217905550735bebafe58fc8b87a03bd39bc147a7fb53e4fabd5600360006101000a81548173ffffffffffffffffffffffffffffffffffffffff021916908373ffffffffffffffffffffffffffffffffffffffff1602179055506000600755348015620000c057600080fd5b5060405162003fdb38038062003fdb833981810160405260c0811015620000e657600080fd5b8101908080519060200190929190805190602001909291908051906020019092919080519060200190929190805190602001909291908051906020019092919050505060006200013b6200024160201b60201c565b9050806000806101000a81548173ffffffffffffffffffffffffffffffffffffffff021916908373ffffffffffffffffffffffffffffffffffffffff1602179055508073ffffffffffffffffffffffffffffffffffffffff16600073ffffffffffffffffffffffffffffffffffffffff167f8be0079c531659141344cd1fd0a4f28419497f9722a3daafe3b4186f6b6457e060405160405180910390a3508573ffffffffffffffffffffffffffffffffffffffff1660808173ffffffffffffffffffffffffffffffffffffffff1660601b81525050846001819055508260a08181525050836008819055508160c081815250508060098190555050505050505062000249565b600033905090565b60805160601c60a05160c051613d2b620002b06000398061201b52806120de52806124295250806109bd5280611ff1528061206452806120ab52806121035250806124a6528061251d52806125ab52806130d3528061343152806135035250613d2b6000f3fe608060405234801561001057600080fd5b50600436106101fb5760003560e01c80638dbb1e3a1161011a578063cb4e8424116100ad578063f2fde38b1161007c578063f2fde38b14610879578063f3fef3a3146108bd578063f7c618c11461090b578063f8b2cb4f1461093f578063f8eeed6214610997576101fb565b8063cb4e8424146107c9578063d46713a2146107d3578063e4fda0b114610807578063ed64bab21461084b576101fb565b8063ae7805b9116100e9578063ae7805b91461072b578063b42651bd14610749578063b7c9d7441461077d578063bb872b4a1461079b576101fb565b80638dbb1e3a146105e057806393f1a40b1461062c5780639ced7e7614610695578063a8b973a11461070d576101fb565b806347e7ef24116101925780636ff1c9bc116101615780636ff1c9bc14610540578063715018a6146105845780638ae39cac1461058e5780638da5cb5b146105ac576101fb565b806347e7ef241461045557806348cd4cb1146104a3578063675b6367146104c15780636ac2b693146104df576101fb565b8063344e5e34116101ce578063344e5e34146102f457806336a8e097146103735780633a610ee4146103cd57806342d8669314610411576101fb565b806317caf6f1146102005780631aed65531461021e578063214cbc821461023c57806328de03b514610298575b600080fd5b6102086109b5565b6040518082815260200191505060405180910390f35b6102266109bb565b6040518082815260200191505060405180910390f35b6102966004803603606081101561025257600080fd5b81019080803573ffffffffffffffffffffffffffffffffffffffff16906020019092919080359060200190929190803561ffff1690602001909291905050506109df565b005b6102f2600480360360608110156102ae57600080fd5b8101908080359060200190929190803573ffffffffffffffffffffffffffffffffffffffff169060200190929190803561ffff169060200190929190505050610ce0565b005b6103206004803603602081101561030a57600080fd5b81019080803590602001909291905050506110cf565b604051808773ffffffffffffffffffffffffffffffffffffffff1681526020018681526020018581526020018481526020018381526020018261ffff168152602001965050505050505060405180910390f35b6103b56004803603602081101561038957600080fd5b81019080803573ffffffffffffffffffffffffffffffffffffffff169060200190929190505050611149565b60405180821515815260200191505060405180910390f35b61040f600480360360208110156103e357600080fd5b81019080803573ffffffffffffffffffffffffffffffffffffffff1690602001909291905050506111a2565b005b6104536004803603602081101561042757600080fd5b81019080803573ffffffffffffffffffffffffffffffffffffffff169060200190929190505050611308565b005b6104a16004803603604081101561046b57600080fd5b81019080803573ffffffffffffffffffffffffffffffffffffffff169060200190929190803590602001909291905050506115de565b005b6104ab611b81565b6040518082815260200191505060405180910390f35b6104c9611b87565b6040518082815260200191505060405180910390f35b610521600480360360208110156104f557600080fd5b81019080803573ffffffffffffffffffffffffffffffffffffffff169060200190929190505050611b94565b6040518083815260200182151581526020019250505060405180910390f35b6105826004803603602081101561055657600080fd5b81019080803573ffffffffffffffffffffffffffffffffffffffff169060200190929190505050611bc5565b005b61058c611e22565b005b610596611fa8565b6040518082815260200191505060405180910390f35b6105b4611fae565b604051808273ffffffffffffffffffffffffffffffffffffffff16815260200191505060405180910390f35b610616600480360360408110156105f657600080fd5b810190808035906020019092919080359060200190929190505050611fd7565b6040518082815260200191505060405180910390f35b6106786004803603604081101561064257600080fd5b8101908080359060200190929190803573ffffffffffffffffffffffffffffffffffffffff169060200190929190505050612155565b604051808381526020018281526020019250505060405180910390f35b6106f7600480360360408110156106ab57600080fd5b81019080803573ffffffffffffffffffffffffffffffffffffffff169060200190929190803573ffffffffffffffffffffffffffffffffffffffff169060200190929190505050612186565b6040518082815260200191505060405180910390f35b610715612427565b6040518082815260200191505060405180910390f35b61073361244b565b6040518082815260200191505060405180910390f35b610751612473565b604051808273ffffffffffffffffffffffffffffffffffffffff16815260200191505060405180910390f35b610785612499565b6040518082815260200191505060405180910390f35b6107c7600480360360208110156107b157600080fd5b810190808035906020019092919050505061267f565b005b6107d161279a565b005b6107db6127c7565b604051808273ffffffffffffffffffffffffffffffffffffffff16815260200191505060405180910390f35b6108496004803603602081101561081d57600080fd5b81019080803573ffffffffffffffffffffffffffffffffffffffff1690602001909291905050506127ed565b005b6108776004803603602081101561086157600080fd5b8101908080359060200190929190505050612953565b005b6108bb6004803603602081101561088f57600080fd5b81019080803573ffffffffffffffffffffffffffffffffffffffff169060200190929190505050612add565b005b610909600480360360408110156108d357600080fd5b81019080803573ffffffffffffffffffffffffffffffffffffffff16906020019092919080359060200190929190505050612ce8565b005b6109136130d1565b604051808273ffffffffffffffffffffffffffffffffffffffff16815260200191505060405180910390f35b6109816004803603602081101561095557600080fd5b81019080803573ffffffffffffffffffffffffffffffffffffffff1690602001909291905050506130f5565b6040518082815260200191505060405180910390f35b61099f613262565b6040518082815260200191505060405180910390f35b60075481565b7f000000000000000000000000000000000000000000000000000000000000000081565b6109e7613268565b73ffffffffffffffffffffffffffffffffffffffff1660008054906101000a900473ffffffffffffffffffffffffffffffffffffffff1673ffffffffffffffffffffffffffffffffffffffff1614610aa7576040517f08c379a00000000000000000000000000000000000000000000000000000000081526004018080602001828103825260208152602001807f4f776e61626c653a2063616c6c6572206973206e6f7420746865206f776e657281525060200191505060405180910390fd5b600560008473ffffffffffffffffffffffffffffffffffffffff1673ffffffffffffffffffffffffffffffffffffffff16815260200190815260200160002060010160009054906101000a900460ff16610b69576040517f08c379a000000000000000000000000000000000000000000000000000000000815260040180806020018281038252601c8152602001807f746f6b656e20646f6573206e6f7420657869737420696e206c6973740000000081525060200191505060405180910390fd5b6101908161ffff161115610bc8576040517f08c379a0000000000000000000000000000000000000000000000000000000008152600401808060200182810382526025815260200180613c826025913960400191505060405180910390fd5b610bd061279a565b6000600560008573ffffffffffffffffffffffffffffffffffffffff1673ffffffffffffffffffffffffffffffffffffffff168152602001908152602001600020600001549050610c5c83610c4e60048481548110610c2b57fe5b90600052602060002090600602016001015460075461327090919063ffffffff16565b6132ba90919063ffffffff16565b6007819055508260048281548110610c7057fe5b9060005260206000209060060201600101819055507f6b0c0d1e946b4449af118593aaa48b525612782701583e2e35db06d52e16d0348484604051808373ffffffffffffffffffffffffffffffffffffffff1681526020018281526020019250505060405180910390a150505050565b610ce8613268565b73ffffffffffffffffffffffffffffffffffffffff1660008054906101000a900473ffffffffffffffffffffffffffffffffffffffff1673ffffffffffffffffffffffffffffffffffffffff1614610da8576040517f08c379a00000000000000000000000000000000000000000000000000000000081526004018080602001828103825260208152602001807f4f776e61626c653a2063616c6c6572206973206e6f7420746865206f776e657281525060200191505060405180910390fd5b600560008373ffffffffffffffffffffffffffffffffffffffff1673ffffffffffffffffffffffffffffffffffffffff16815260200190815260200160002060010160009054906101000a900460ff1615610e4e576040517f08c379a0000000000000000000000000000000000000000000000000000000008152600401808060200182810382526025815260200180613ca76025913960400191505060405180910390fd5b6101908161ffff161115610ead576040517f08c379a0000000000000000000000000000000000000000000000000000000008152600401808060200182810382526025815260200180613c166025913960400191505060405180910390fd5b610eb561279a565b60006008544311610ec857600854610eca565b435b9050610ee1846007546132ba90919063ffffffff16565b60078190555060046040518060c001604052808573ffffffffffffffffffffffffffffffffffffffff16815260200186815260200183815260200160008152602001600081526020018461ffff16815250908060018154018082558091505060019003906000526020600020906006020160009091909190915060008201518160000160006101000a81548173ffffffffffffffffffffffffffffffffffffffff021916908373ffffffffffffffffffffffffffffffffffffffff1602179055506020820151816001015560408201518160020155606082015181600301556080820151816004015560a08201518160050160006101000a81548161ffff021916908361ffff16021790555050506040518060400160405280600160048054905003815260200160011515815250600560008573ffffffffffffffffffffffffffffffffffffffff1673ffffffffffffffffffffffffffffffffffffffff1681526020019081526020016000206000820151816000015560208201518160010160006101000a81548160ff0219169083151502179055509050508273ffffffffffffffffffffffffffffffffffffffff167ff4c563a3ea86ff1f4275e8c207df0375a51963f2b831b7bf4da8be938d92876c856040518082815260200191505060405180910390a250505050565b600481815481106110df57600080fd5b90600052602060002090600602016000915090508060000160009054906101000a900473ffffffffffffffffffffffffffffffffffffffff16908060010154908060020154908060030154908060040154908060050160009054906101000a900461ffff16905086565b6000600560008373ffffffffffffffffffffffffffffffffffffffff1673ffffffffffffffffffffffffffffffffffffffff16815260200190815260200160002060010160009054906101000a900460ff169050919050565b6111aa613268565b73ffffffffffffffffffffffffffffffffffffffff1660008054906101000a900473ffffffffffffffffffffffffffffffffffffffff1673ffffffffffffffffffffffffffffffffffffffff161461126a576040517f08c379a00000000000000000000000000000000000000000000000000000000081526004018080602001828103825260208152602001807f4f776e61626c653a2063616c6c6572206973206e6f7420746865206f776e657281525060200191505060405180910390fd5b80600260006101000a81548173ffffffffffffffffffffffffffffffffffffffff021916908373ffffffffffffffffffffffffffffffffffffffff1602179055508073ffffffffffffffffffffffffffffffffffffffff163373ffffffffffffffffffffffffffffffffffffffff167f8da255fa37d5e70fc7fd112072a262fc93113e60e19707f73a19317a598b964d60405160405180910390a350565b600560008273ffffffffffffffffffffffffffffffffffffffff1673ffffffffffffffffffffffffffffffffffffffff16815260200190815260200160002060010160009054906101000a900460ff166113ca576040517f08c379a000000000000000000000000000000000000000000000000000000000815260040180806020018281038252600d8152602001807f696e76616c696420746f6b656e0000000000000000000000000000000000000081525060200191505060405180910390fd5b6000600560008373ffffffffffffffffffffffffffffffffffffffff1673ffffffffffffffffffffffffffffffffffffffff16815260200190815260200160002060000154905060006004828154811061142057fe5b9060005260206000209060060201905060006006600084815260200190815260200160002060003373ffffffffffffffffffffffffffffffffffffffff1673ffffffffffffffffffffffffffffffffffffffff168152602001908152602001600020905061148d83612953565b60006114d782600101546114c964e8d4a510006114bb8760030154876000015461334290919063ffffffff16565b6133c890919063ffffffff16565b61327090919063ffffffff16565b905060006114e3612499565b905060008282101561153157611502828461327090919063ffffffff16565b90507fedc4d693842bd425f11a465e08c38b27bd64a467bb136c7b98af6ca2bcb1784860405160405180910390a15b6115758161156764e8d4a510006115598960030154896000015461334290919063ffffffff16565b6133c890919063ffffffff16565b61327090919063ffffffff16565b84600101819055506115873384613412565b3373ffffffffffffffffffffffffffffffffffffffff167faa1377f7ec93c239e959efa811f7b8554c036fd7a706c23e58024626a8f3db96846040518082815260200191505060405180910390a250505050505050565b600560008373ffffffffffffffffffffffffffffffffffffffff1673ffffffffffffffffffffffffffffffffffffffff16815260200190815260200160002060010160009054906101000a900460ff166116a0576040517f08c379a000000000000000000000000000000000000000000000000000000000815260040180806020018281038252600d8152602001807f696e76616c696420746f6b656e0000000000000000000000000000000000000081525060200191505060405180910390fd5b600954421015611718576040517f08c379a000000000000000000000000000000000000000000000000000000000815260040180806020018281038252601c8152602001807f6465706f7369747320617265206e6f7420656e61626c6564207965740000000081525060200191505060405180910390fd5b6000600560008473ffffffffffffffffffffffffffffffffffffffff1673ffffffffffffffffffffffffffffffffffffffff16815260200190815260200160002060000154905061176881612953565b60006004828154811061177757fe5b9060005260206000209060060201905060006006600084815260200190815260200160002060003373ffffffffffffffffffffffffffffffffffffffff1673ffffffffffffffffffffffffffffffffffffffff16815260200190815260200160002090506000611825826001015461181764e8d4a510006118098760030154876000015461334290919063ffffffff16565b6133c890919063ffffffff16565b61327090919063ffffffff16565b9050600080600087118015611850575060008560050160009054906101000a900461ffff1661ffff16115b156118ab576118926127106118848760050160009054906101000a900461ffff1661ffff168a61334290919063ffffffff16565b6133c890919063ffffffff16565b91506118a86002836133c890919063ffffffff16565b90505b6118e6816118d8836118ca8b89600001546132ba90919063ffffffff16565b61327090919063ffffffff16565b61327090919063ffffffff16565b846000018190555060006118f8612499565b905060008482101561194657611917828661327090919063ffffffff16565b90507fedc4d693842bd425f11a465e08c38b27bd64a467bb136c7b98af6ca2bcb1784860405160405180910390a15b61198a8161197c64e8d4a5100061196e8b600301548b6000015461334290919063ffffffff16565b6133c890919063ffffffff16565b61327090919063ffffffff16565b86600101819055506000891115611b6b576119d6836119c8856119ba8d8c600401546132ba90919063ffffffff16565b61327090919063ffffffff16565b61327090919063ffffffff16565b8760040181905550611a2f33308b8a60000160009054906101000a900473ffffffffffffffffffffffffffffffffffffffff1673ffffffffffffffffffffffffffffffffffffffff166135d5909392919063ffffffff16565b6000831115611b1b57611aa9600260009054906101000a900473ffffffffffffffffffffffffffffffffffffffff16848960000160009054906101000a900473ffffffffffffffffffffffffffffffffffffffff1673ffffffffffffffffffffffffffffffffffffffff166136969092919063ffffffff16565b611b1a600360009054906101000a900473ffffffffffffffffffffffffffffffffffffffff16848960000160009054906101000a900473ffffffffffffffffffffffffffffffffffffffff1673ffffffffffffffffffffffffffffffffffffffff166136969092919063ffffffff16565b5b873373ffffffffffffffffffffffffffffffffffffffff167f90890809c654f11d6e72a28fa60149770a0d11ec6c92319d6ceb2bb0a4ea1a158b6040518082815260200191505060405180910390a35b611b753386613412565b50505050505050505050565b60085481565b6000600480549050905090565b60056020528060005260406000206000915090508060000154908060010160009054906101000a900460ff16905082565b600560008273ffffffffffffffffffffffffffffffffffffffff1673ffffffffffffffffffffffffffffffffffffffff16815260200190815260200160002060010160009054906101000a900460ff16611c87576040517f08c379a000000000000000000000000000000000000000000000000000000000815260040180806020018281038252600d8152602001807f696e76616c696420746f6b656e0000000000000000000000000000000000000081525060200191505060405180910390fd5b6000600560008373ffffffffffffffffffffffffffffffffffffffff1673ffffffffffffffffffffffffffffffffffffffff168152602001908152602001600020600001549050600060048281548110611cdd57fe5b9060005260206000209060060201905060006006600084815260200190815260200160002060003373ffffffffffffffffffffffffffffffffffffffff1673ffffffffffffffffffffffffffffffffffffffff16815260200190815260200160002090506000816000015490506000826000018190555060008260010181905550611d7581846004015461327090919063ffffffff16565b8360040181905550611dcc33828560000160009054906101000a900473ffffffffffffffffffffffffffffffffffffffff1673ffffffffffffffffffffffffffffffffffffffff166136969092919063ffffffff16565b833373ffffffffffffffffffffffffffffffffffffffff167fbb757047c2b5f3974fe26b7c10f732e7bce710b0952a71082702781e62ae0595836040518082815260200191505060405180910390a35050505050565b611e2a613268565b73ffffffffffffffffffffffffffffffffffffffff1660008054906101000a900473ffffffffffffffffffffffffffffffffffffffff1673ffffffffffffffffffffffffffffffffffffffff1614611eea576040517f08c379a00000000000000000000000000000000000000000000000000000000081526004018080602001828103825260208152602001807f4f776e61626c653a2063616c6c6572206973206e6f7420746865206f776e657281525060200191505060405180910390fd5b600073ffffffffffffffffffffffffffffffffffffffff1660008054906101000a900473ffffffffffffffffffffffffffffffffffffffff1673ffffffffffffffffffffffffffffffffffffffff167f8be0079c531659141344cd1fd0a4f28419497f9722a3daafe3b4186f6b6457e060405160405180910390a360008060006101000a81548173ffffffffffffffffffffffffffffffffffffffff021916908373ffffffffffffffffffffffffffffffffffffffff160217905550565b60015481565b60008060009054906101000a900473ffffffffffffffffffffffffffffffffffffffff16905090565b6000600854831015611feb57600854611fed565b825b92507f000000000000000000000000000000000000000000000000000000000000000082116120625761205b7f000000000000000000000000000000000000000000000000000000000000000061204d858561327090919063ffffffff16565b61334290919063ffffffff16565b905061214f565b7f000000000000000000000000000000000000000000000000000000000000000083106120a35761209c838361327090919063ffffffff16565b905061214f565b61214c6120d97f00000000000000000000000000000000000000000000000000000000000000008461327090919063ffffffff16565b61213e7f0000000000000000000000000000000000000000000000000000000000000000612130877f000000000000000000000000000000000000000000000000000000000000000061327090919063ffffffff16565b61334290919063ffffffff16565b6132ba90919063ffffffff16565b90505b92915050565b6006602052816000526040600020602052806000526040600020600091509150508060000154908060010154905082565b6000600560008473ffffffffffffffffffffffffffffffffffffffff1673ffffffffffffffffffffffffffffffffffffffff16815260200190815260200160002060010160009054906101000a900460ff1661224a576040517f08c379a000000000000000000000000000000000000000000000000000000000815260040180806020018281038252600d8152602001807f696e76616c696420746f6b656e0000000000000000000000000000000000000081525060200191505060405180910390fd5b6000600560008573ffffffffffffffffffffffffffffffffffffffff1673ffffffffffffffffffffffffffffffffffffffff1681526020019081526020016000206000015490506000600482815481106122a057fe5b9060005260206000209060060201905060006006600084815260200190815260200160002060008673ffffffffffffffffffffffffffffffffffffffff1673ffffffffffffffffffffffffffffffffffffffff168152602001908152602001600020905060008260030154905082600201544311801561232557506000836004015414155b156123d757600061233a846002015443611fd7565b905060008085600101541461238d5761238860075461237a876001015461236c6001548761334290919063ffffffff16565b61334290919063ffffffff16565b6133c890919063ffffffff16565b612390565b60005b90506123d26123c386600401546123b564e8d4a510008561334290919063ffffffff16565b6133c890919063ffffffff16565b846132ba90919063ffffffff16565b925050505b61241b826001015461240d64e8d4a510006123ff85876000015461334290919063ffffffff16565b6133c890919063ffffffff16565b61327090919063ffffffff16565b94505050505092915050565b7f000000000000000000000000000000000000000000000000000000000000000081565b600080612456612499565b905061246d600154826133c890919063ffffffff16565b91505090565b600360009054906101000a900473ffffffffffffffffffffffffffffffffffffffff1681565b60008060009050600560007f000000000000000000000000000000000000000000000000000000000000000073ffffffffffffffffffffffffffffffffffffffff1673ffffffffffffffffffffffffffffffffffffffff16815260200190815260200160002060010160009054906101000a900460ff16156125a5576000600560007f000000000000000000000000000000000000000000000000000000000000000073ffffffffffffffffffffffffffffffffffffffff1673ffffffffffffffffffffffffffffffffffffffff16815260200190815260200160002060000154905060006004828154811061258b57fe5b906000526020600020906006020190508060040154925050505b612679817f000000000000000000000000000000000000000000000000000000000000000073ffffffffffffffffffffffffffffffffffffffff166370a08231306040518263ffffffff1660e01b8152600401808273ffffffffffffffffffffffffffffffffffffffff16815260200191505060206040518083038186803b15801561263057600080fd5b505afa158015612644573d6000803e3d6000fd5b505050506040513d602081101561265a57600080fd5b810190808051906020019092919050505061327090919063ffffffff16565b91505090565b612687613268565b73ffffffffffffffffffffffffffffffffffffffff1660008054906101000a900473ffffffffffffffffffffffffffffffffffffffff1673ffffffffffffffffffffffffffffffffffffffff1614612747576040517f08c379a00000000000000000000000000000000000000000000000000000000081526004018080602001828103825260208152602001807f4f776e61626c653a2063616c6c6572206973206e6f7420746865206f776e657281525060200191505060405180910390fd5b61274f61279a565b7f79a5349732f93288abbb68e251c3dfc325bf3ee6fde7786d919155d39733e0f560015482604051808381526020018281526020019250505060405180910390a18060018190555050565b6000600480549050905060005b818110156127c3576127b881612953565b8060010190506127a7565b5050565b600260009054906101000a900473ffffffffffffffffffffffffffffffffffffffff1681565b6127f5613268565b73ffffffffffffffffffffffffffffffffffffffff1660008054906101000a900473ffffffffffffffffffffffffffffffffffffffff1673ffffffffffffffffffffffffffffffffffffffff16146128b5576040517f08c379a00000000000000000000000000000000000000000000000000000000081526004018080602001828103825260208152602001807f4f776e61626c653a2063616c6c6572206973206e6f7420746865206f776e657281525060200191505060405180910390fd5b80600360006101000a81548173ffffffffffffffffffffffffffffffffffffffff021916908373ffffffffffffffffffffffffffffffffffffffff1602179055508073ffffffffffffffffffffffffffffffffffffffff163373ffffffffffffffffffffffffffffffffffffffff167fa460779627f267fd890dc2c7bbc4f7edc95717f72a54af07ff5ed4b8a14c3bec60405160405180910390a350565b60048054905081106129cd576040517f08c379a00000000000000000000000000000000000000000000000000000000081526004018080602001828103825260198152602001807f746f6b656e20696e646578206f7574206f6620626f756e64730000000000000081525060200191505060405180910390fd5b6000600482815481106129dc57fe5b90600052602060002090600602019050806002015443116129fd5750612ada565b600081600401541415612a195743816002018190555050612ada565b6000612a29826002015443611fd7565b9050600080836001015414612a7c57612a77600754612a698560010154612a5b6001548761334290919063ffffffff16565b61334290919063ffffffff16565b6133c890919063ffffffff16565b612a7f565b60005b9050612ac5612ab28460040154612aa464e8d4a510008561334290919063ffffffff16565b6133c890919063ffffffff16565b84600301546132ba90919063ffffffff16565b83600301819055504383600201819055505050505b50565b612ae5613268565b73ffffffffffffffffffffffffffffffffffffffff1660008054906101000a900473ffffffffffffffffffffffffffffffffffffffff1673ffffffffffffffffffffffffffffffffffffffff1614612ba5576040517f08c379a00000000000000000000000000000000000000000000000000000000081526004018080602001828103825260208152602001807f4f776e61626c653a2063616c6c6572206973206e6f7420746865206f776e657281525060200191505060405180910390fd5b600073ffffffffffffffffffffffffffffffffffffffff168173ffffffffffffffffffffffffffffffffffffffff161415612c2b576040517f08c379a0000000000000000000000000000000000000000000000000000000008152600401808060200182810382526026815260200180613c3b6026913960400191505060405180910390fd5b8073ffffffffffffffffffffffffffffffffffffffff1660008054906101000a900473ffffffffffffffffffffffffffffffffffffffff1673ffffffffffffffffffffffffffffffffffffffff167f8be0079c531659141344cd1fd0a4f28419497f9722a3daafe3b4186f6b6457e060405160405180910390a3806000806101000a81548173ffffffffffffffffffffffffffffffffffffffff021916908373ffffffffffffffffffffffffffffffffffffffff16021790555050565b600560008373ffffffffffffffffffffffffffffffffffffffff1673ffffffffffffffffffffffffffffffffffffffff16815260200190815260200160002060010160009054906101000a900460ff16612daa576040517f08c379a000000000000000000000000000000000000000000000000000000000815260040180806020018281038252600d8152602001807f696e76616c696420746f6b656e0000000000000000000000000000000000000081525060200191505060405180910390fd5b6000600560008473ffffffffffffffffffffffffffffffffffffffff1673ffffffffffffffffffffffffffffffffffffffff168152602001908152602001600020600001549050600060048281548110612e0057fe5b9060005260206000209060060201905060006006600084815260200190815260200160002060003373ffffffffffffffffffffffffffffffffffffffff1673ffffffffffffffffffffffffffffffffffffffff16815260200190815260200160002090508381600001541015612ede576040517f08c379a00000000000000000000000000000000000000000000000000000000081526004018080602001828103825260188152602001807f696e76616c696420616d6f756e7420737065636966696564000000000000000081525060200191505060405180910390fd5b612ee783612953565b6000612f318260010154612f2364e8d4a51000612f158760030154876000015461334290919063ffffffff16565b6133c890919063ffffffff16565b61327090919063ffffffff16565b9050612f4a85836000015461327090919063ffffffff16565b82600001819055506000612f5c612499565b9050600082821015612faa57612f7b828461327090919063ffffffff16565b90507fedc4d693842bd425f11a465e08c38b27bd64a467bb136c7b98af6ca2bcb1784860405160405180910390a15b612fee81612fe064e8d4a51000612fd28960030154896000015461334290919063ffffffff16565b6133c890919063ffffffff16565b61327090919063ffffffff16565b84600101819055506130003384613412565b60008711156130c75761302087866004015461327090919063ffffffff16565b856004018190555061307733888760000160009054906101000a900473ffffffffffffffffffffffffffffffffffffffff1673ffffffffffffffffffffffffffffffffffffffff166136969092919063ffffffff16565b853373ffffffffffffffffffffffffffffffffffffffff167ff279e6a1f5e320cca91135676d9cb6e44ca8a08c0b88342bcdb1144f6511b568896040518082815260200191505060405180910390a35b5050505050505050565b7f000000000000000000000000000000000000000000000000000000000000000081565b6000600560008373ffffffffffffffffffffffffffffffffffffffff1673ffffffffffffffffffffffffffffffffffffffff16815260200190815260200160002060010160009054906101000a900460ff166131b9576040517f08c379a000000000000000000000000000000000000000000000000000000000815260040180806020018281038252600d8152602001807f696e76616c696420746f6b656e0000000000000000000000000000000000000081525060200191505060405180910390fd5b6000600560008473ffffffffffffffffffffffffffffffffffffffff1673ffffffffffffffffffffffffffffffffffffffff16815260200190815260200160002060000154905060006006600083815260200190815260200160002060003373ffffffffffffffffffffffffffffffffffffffff1673ffffffffffffffffffffffffffffffffffffffff1681526020019081526020016000209050806000015492505050919050565b60095481565b600033905090565b60006132b283836040518060400160405280601e81526020017f536166654d6174683a207375627472616374696f6e206f766572666c6f770000815250613738565b905092915050565b600080828401905083811015613338576040517f08c379a000000000000000000000000000000000000000000000000000000000815260040180806020018281038252601b8152602001807f536166654d6174683a206164646974696f6e206f766572666c6f77000000000081525060200191505060405180910390fd5b8091505092915050565b60008083141561335557600090506133c2565b600082840290508284828161336657fe5b04146133bd576040517f08c379a0000000000000000000000000000000000000000000000000000000008152600401808060200182810382526021815260200180613c616021913960400191505060405180910390fd5b809150505b92915050565b600061340a83836040518060400160405280601a81526020017f536166654d6174683a206469766973696f6e206279207a65726f0000000000008152506137f8565b905092915050565b600061341c612499565b905060008211156135d05780821115613501577f000000000000000000000000000000000000000000000000000000000000000073ffffffffffffffffffffffffffffffffffffffff1663a9059cbb84836040518363ffffffff1660e01b8152600401808373ffffffffffffffffffffffffffffffffffffffff16815260200182815260200192505050602060405180830381600087803b1580156134c057600080fd5b505af11580156134d4573d6000803e3d6000fd5b505050506040513d60208110156134ea57600080fd5b8101908080519060200190929190505050506135cf565b7f000000000000000000000000000000000000000000000000000000000000000073ffffffffffffffffffffffffffffffffffffffff1663a9059cbb84846040518363ffffffff1660e01b8152600401808373ffffffffffffffffffffffffffffffffffffffff16815260200182815260200192505050602060405180830381600087803b15801561359257600080fd5b505af11580156135a6573d6000803e3d6000fd5b505050506040513d60208110156135bc57600080fd5b8101908080519060200190929190505050505b5b505050565b613690846323b872dd60e01b858585604051602401808473ffffffffffffffffffffffffffffffffffffffff1681526020018373ffffffffffffffffffffffffffffffffffffffff1681526020018281526020019350505050604051602081830303815290604052907bffffffffffffffffffffffffffffffffffffffffffffffffffffffff19166020820180517bffffffffffffffffffffffffffffffffffffffffffffffffffffffff83818316178352505050506138be565b50505050565b6137338363a9059cbb60e01b8484604051602401808373ffffffffffffffffffffffffffffffffffffffff16815260200182815260200192505050604051602081830303815290604052907bffffffffffffffffffffffffffffffffffffffffffffffffffffffff19166020820180517bffffffffffffffffffffffffffffffffffffffffffffffffffffffff83818316178352505050506138be565b505050565b60008383111582906137e5576040517f08c379a00000000000000000000000000000000000000000000000000000000081526004018080602001828103825283818151815260200191508051906020019080838360005b838110156137aa57808201518184015260208101905061378f565b50505050905090810190601f1680156137d75780820380516001836020036101000a031916815260200191505b509250505060405180910390fd5b5060008385039050809150509392505050565b600080831182906138a4576040517f08c379a00000000000000000000000000000000000000000000000000000000081526004018080602001828103825283818151815260200191508051906020019080838360005b8381101561386957808201518184015260208101905061384e565b50505050905090810190601f1680156138965780820380516001836020036101000a031916815260200191505b509250505060405180910390fd5b5060008385816138b057fe5b049050809150509392505050565b6000613920826040518060400160405280602081526020017f5361666545524332303a206c6f772d6c6576656c2063616c6c206661696c65648152508573ffffffffffffffffffffffffffffffffffffffff166139ad9092919063ffffffff16565b90506000815111156139a85780806020019051602081101561394157600080fd5b81019080805190602001909291905050506139a7576040517f08c379a000000000000000000000000000000000000000000000000000000000815260040180806020018281038252602a815260200180613ccc602a913960400191505060405180910390fd5b5b505050565b60606139bc84846000856139c5565b90509392505050565b60606139d085613bca565b613a42576040517f08c379a000000000000000000000000000000000000000000000000000000000815260040180806020018281038252601d8152602001807f416464726573733a2063616c6c20746f206e6f6e2d636f6e747261637400000081525060200191505060405180910390fd5b6000808673ffffffffffffffffffffffffffffffffffffffff1685876040518082805190602001908083835b60208310613a915780518252602082019150602081019050602083039250613a6e565b6001836020036101000a03801982511681845116808217855250505050505090500191505060006040518083038185875af1925050503d8060008114613af3576040519150601f19603f3d011682016040523d82523d6000602084013e613af8565b606091505b50915091508115613b0d578092505050613bc2565b600081511115613b205780518082602001fd5b836040517f08c379a00000000000000000000000000000000000000000000000000000000081526004018080602001828103825283818151815260200191508051906020019080838360005b83811015613b87578082015181840152602081019050613b6c565b50505050905090810190601f168015613bb45780820380516001836020036101000a031916815260200191505b509250505060405180910390fd5b949350505050565b60008060007fc5d2460186f7233c927e7db2dcc703c0e500b653ca82273b7bfad8045d85a47060001b9050833f9150808214158015613c0c57506000801b8214155b9250505091905056fe6164643a20696e76616c6964206465706f7369742066656520626173697320706f696e74734f776e61626c653a206e6577206f776e657220697320746865207a65726f2061646472657373536166654d6174683a206d756c7469706c69636174696f6e206f766572666c6f777365743a20696e76616c6964206465706f7369742066656520626173697320706f696e74737374616b696e6720746f6b656e20616c72656164792065786973747320696e2061727261795361666545524332303a204552433230206f7065726174696f6e20646964206e6f742073756363656564a264697066735822122099d5466949955fbe22b2f221167ec01670f23ed2eaa739aab95d1cc07271057f64736f6c63430007060033",
  "immutableReferences": {
    "2790": [
      {
        "length": 32,
        "start": 9382
      },
      {
        "length": 32,
        "start": 9501
      },
      {
        "length": 32,
        "start": 9643
      },
      {
        "length": 32,
        "start": 12499
      },
      {
        "length": 32,
        "start": 13361
      },
      {
        "length": 32,
        "start": 13571
      }
    ],
    "2792": [
      {
        "length": 32,
        "start": 2493
      },
      {
        "length": 32,
        "start": 8177
      },
      {
        "length": 32,
        "start": 8292
      },
      {
        "length": 32,
        "start": 8363
      },
      {
        "length": 32,
        "start": 8451
      }
    ],
    "2794": [
      {
        "length": 32,
        "start": 8219
      },
      {
        "length": 32,
        "start": 8414
      },
      {
        "length": 32,
        "start": 9257
      }
    ]
  },
  "source": "// SPDX-License-Identifier: MIT\npragma solidity ^0.7.0;\n\nimport \"@openzeppelin/contracts/token/ERC20/IERC20.sol\";\nimport \"@openzeppelin/contracts/token/ERC20/SafeERC20.sol\";\nimport \"@openzeppelin/contracts/math/SafeMath.sol\";\nimport \"@openzeppelin/contracts/access/Ownable.sol\";\nimport \"./KeyfiToken.sol\";\n//import \"./Whitelist.sol\";\n\n /**\n * @title RewardPool\n * @dev Implementation of Reward logic for KEYFI token, based on SushiSwap's MasterChef.\n */\ncontract RewardPool is Ownable {\n    using SafeMath for uint256;\n    using SafeERC20 for IERC20;\n    using SafeERC20 for KeyfiToken;\n\n    // Info of each user.\n    struct UserInfo {\n        uint256 amount;     // How many LP tokens the user has provided.\n        uint256 rewardDebt; // Reward debt. See explanation below.\n        //\n        // We do some fancy math here. Basically, any point in time, the amount of reward\n        // entitled to a user but is pending to be distributed is:\n        //\n        //   pending reward = (user.amount * pool.accRewardPerShare) - user.rewardDebt\n        //\n        // Whenever a user deposits or withdraws LP tokens to a pool. Here's what happens:\n        //   1. The pool's `accRewardPerShare` (and `lastRewardBlock`) gets updated.\n        //   2. User receives the pending reward sent to his/her address.\n        //   3. User's `amount` gets updated.\n        //   4. User's `rewardDebt` gets updated.\n    }\n\n    // Info of each staking token\n    struct StakingToken {\n        IERC20 stakingToken;            // Contract address of token to be staked\n        uint256 allocPoint;             // How many allocation points assigned to this token\n        uint256 lastRewardBlock;        // Last block number that reward distribution occurred\n        uint256 accRewardPerShare;      // Accumulated reward per share, times 1e12.\n        uint256 totalStake;\n        uint16 depositFeeBP;            // Deposit fee in basis points\n    }\n\n    struct TokenIndex {\n        uint256 index;\n        bool added;\n    }\n\n    KeyfiToken public immutable rewardToken;\n    uint256 public immutable bonusEndBlock;    // Block number when bonus reward period ends\n    uint256 public immutable bonusMultiplier;  // Bonus muliplier for early users\n    uint256 public rewardPerBlock;             // reward tokens distributed per block\n\n    // Deposit Fee address\n    address public feeAddA = 0xBff76b1Ab7A545EdB58feB4068A5737AAf3a102c;\n    address public feeAddB = 0x5BEBAFE58FC8b87a03Bd39bC147a7fb53e4FABd5;\n\n    StakingToken[] public stakingTokens;                                    // Info of each pool\n    mapping(address => TokenIndex) public stakingTokenIndexes;\n    mapping (uint256 => mapping (address => UserInfo)) public userInfo;     // Info of each user that stakes tokens\n    uint256 public totalAllocPoint = 0;                                     // Total allocation points. Must be the sum of all allocation points in all pools\n    uint256 public startBlock;                                              // The block number when rewards start\n    uint256 public launchDate;\n\n    event TokenAdded(address indexed token, uint256 allocPoints);\n    event TokenRemoved(address indexed token);\n    event Deposit(address indexed user, uint256 indexed pid, uint256 amount);\n    event Withdraw(address indexed user, uint256 indexed pid, uint256 amount);\n    event WithdrawRewards(address indexed user, uint256 amount);\n    event EmergencyWithdraw(address indexed user, uint256 indexed pid, uint256 amount);\n    event RewardPerBlockChanged(uint256 previousRate, uint256 newRate);\n    event SetAllocPoint(address token, uint256 allocPoints);\n    event InsufficientRewardpool();\n    event SetFeeAddressA(address indexed user, address indexed newAddress);\n    event SetFeeAddressB(address indexed user, address indexed newAddress);\n\n    constructor(\n        KeyfiToken _rewardToken,\n        uint256 _rewardPerBlock,\n        uint256 _startBlock,\n        uint256 _bonusEndBlock,\n        uint256 _bonusMultiplier,\n        uint256 _launchDate\n    ) \n    {\n        rewardToken = _rewardToken;\n        rewardPerBlock = _rewardPerBlock;\n        bonusEndBlock = _bonusEndBlock;\n        startBlock = _startBlock;\n        bonusMultiplier = _bonusMultiplier;\n        launchDate = _launchDate;\n    }\n\n    function stakingTokensCount() \n        external \n        view \n        returns (uint256) \n    {\n        return stakingTokens.length;\n    }\n\n    /**\n     * @dev adds a token to the list of allowed staking tokens\n     * @param _allocPoint  The \"weight\" of this token in relation to other allowed tokens.\n     * @param _stakingToken  The token to be added.\n     * @param _depositFeeBP  deposit fee basis points to be deducted on each deposit\n     */\n    function addStakingToken(uint256 _allocPoint, IERC20 _stakingToken, uint16 _depositFeeBP) \n        public \n        onlyOwner \n    {\n        //require(address(_stakingToken) != address(rewardToken), \"cannot add reward token as staking token\");\n        require(!stakingTokenIndexes[address(_stakingToken)].added, \"staking token already exists in array\");\n        require(_depositFeeBP <= 400, \"add: invalid deposit fee basis points\");\n\n        massUpdateTokens();\n        uint256 lastRewardBlock = block.number > startBlock ? block.number : startBlock;\n        totalAllocPoint = totalAllocPoint.add(_allocPoint);\n        stakingTokens.push(StakingToken({\n            stakingToken: _stakingToken,\n            allocPoint: _allocPoint,\n            lastRewardBlock: lastRewardBlock,\n            accRewardPerShare: 0,\n            totalStake: 0,\n            depositFeeBP : _depositFeeBP\n        }));\n\n        stakingTokenIndexes[address(_stakingToken)] = TokenIndex({\n            index: stakingTokens.length - 1,\n            added: true\n        });\n\n        emit TokenAdded(address(_stakingToken), _allocPoint);\n    }\n\n    // CHECK STAKING TOKEN ADDED\n    function isStakingToken(IERC20 _token) \n        external \n        view \n        returns (bool) \n    {\n        return stakingTokenIndexes[address(_token)].added;\n    }\n\n    /**\n     * @dev changes the weight allocation for a particular token\n     * @param _token  The token to be configured.\n     * @param _allocPoint  The allocation points set to this token\n     */\n    function setAllocPoint(IERC20 _token, uint256 _allocPoint, uint16 _depositFeeBP) \n        public \n        onlyOwner \n    {\n        require(stakingTokenIndexes[address(_token)].added, \"token does not exist in list\");\n        //require(_allocPoint > 0, \"allocation points must be greater than zero\");\n        require(_depositFeeBP <= 400, \"set: invalid deposit fee basis points\");\n\n        massUpdateTokens();\n        uint256 index = stakingTokenIndexes[address(_token)].index;\n        totalAllocPoint = totalAllocPoint.sub(stakingTokens[index].allocPoint).add(_allocPoint);\n        stakingTokens[index].allocPoint = _allocPoint;\n        emit SetAllocPoint(address(_token), _allocPoint);\n    }\n\n    function setRewardPerBlock(uint256 _newRate)\n        external\n        onlyOwner\n    {\n        massUpdateTokens();\n        emit RewardPerBlockChanged(rewardPerBlock, _newRate);\n        rewardPerBlock = _newRate;\n    }\n\n    /**\n     * @dev gets multiplier factor for possible bonuses within any given period\n     * @param _from  starting block\n     * @param _to  last block of the period\n     */\n    function getMultiplier(uint256 _from, uint256 _to) \n        public \n        view \n        returns (uint256) \n    {\n        _from = _from >= startBlock? _from : startBlock;\n        if (_to <= bonusEndBlock) {\n            return _to.sub(_from).mul(bonusMultiplier);\n        } else if (_from >= bonusEndBlock) {\n            return _to.sub(_from);\n        } else {\n            return bonusEndBlock.sub(_from).mul(bonusMultiplier).add(\n                _to.sub(bonusEndBlock)\n            );\n        }\n    }\n\n    /**\n     * @dev calculates pending reward for a given staking token and a user\n     * @param _token  The staking token\n     * @param _user  The stakeholder \n     */\n    function pendingReward(IERC20 _token, address _user) \n        external \n        view \n        returns (uint256) \n    {\n        require(stakingTokenIndexes[address(_token)].added, \"invalid token\");\n\n        uint256 _pid = stakingTokenIndexes[address(_token)].index;\n        StakingToken storage pool = stakingTokens[_pid];\n\n        UserInfo storage user = userInfo[_pid][_user];\n        uint256 accRewardPerShare = pool.accRewardPerShare;\n        \n        if (block.number > pool.lastRewardBlock && pool.totalStake != 0) {\n            uint256 multiplier = getMultiplier(pool.lastRewardBlock, block.number);\n            uint256 reward = (pool.allocPoint == 0)? 0 : multiplier.mul(rewardPerBlock).mul(pool.allocPoint).div(totalAllocPoint);\n            accRewardPerShare = accRewardPerShare.add(reward.mul(1e12).div(pool.totalStake));\n        }\n\n        return user.amount.mul(accRewardPerShare).div(1e12).sub(user.rewardDebt);\n    }\n\n    /**\n     * @dev invokes a checkpoint update on all staking tokens in the list\n     */\n    function massUpdateTokens() \n        public \n    {\n        uint256 length = stakingTokens.length;\n        for (uint256 pid = 0; pid < length; ++pid) {\n            checkpoint(pid);\n        }\n    }\n\n    /**\n     * @dev Calculates all reward rates for all staking tokens since last checkpoint. \n     * Should be called before any balance-changing operations (e.g. deposit, withdraw)\n     * @param _pid  The index of the token in the array of staking tokens\n     */\n    function checkpoint(uint256 _pid) \n        public \n    {\n        require(_pid < stakingTokens.length, \"token index out of bounds\");\n\n        StakingToken storage pool = stakingTokens[_pid];\n        \n        if (block.number <= pool.lastRewardBlock) {\n            return;\n        }\n\n        if (pool.totalStake == 0) {\n            pool.lastRewardBlock = block.number;\n            return;\n        }\n\n        uint256 multiplier = getMultiplier(pool.lastRewardBlock, block.number);\n        uint256 reward = (pool.allocPoint == 0)? 0 : multiplier.mul(rewardPerBlock).mul(pool.allocPoint).div(totalAllocPoint);\n        \n        //rewardToken.mint(address(this), reward);\n\n        pool.accRewardPerShare = pool.accRewardPerShare.add(reward.mul(1e12).div(pool.totalStake));\n        pool.lastRewardBlock = block.number;\n    }\n\n    // GET STAKED TOKEN BALANCE\n    function getBalance(IERC20 _token) \n        external \n        view \n        returns (uint256)\n    {\n        require(stakingTokenIndexes[address(_token)].added, \"invalid token\");\n        uint256 _pid = stakingTokenIndexes[address(_token)].index;\n        UserInfo storage user = userInfo[_pid][msg.sender];\n\n        return user.amount;\n    }\n\n    /**\n     * @dev deposit _amount into a given _token pool\n     * @param _token  The staking token to be deposited\n     * @param _amount  The amount of tokens to be staked\n     */\n    function deposit(IERC20 _token, uint256 _amount) \n        public \n    {\n        require(stakingTokenIndexes[address(_token)].added, \"invalid token\");\n        require(block.timestamp >= launchDate, \"deposits are not enabled yet\");\n\n        uint256 _pid = stakingTokenIndexes[address(_token)].index;\n        checkpoint(_pid);\n        StakingToken storage pool = stakingTokens[_pid];\n        UserInfo storage user = userInfo[_pid][msg.sender];\n        uint256 pending = user.amount.mul(pool.accRewardPerShare).div(1e12).sub(user.rewardDebt);\n\n        uint256 depositFee = 0;\n        uint256 depositFeeHalf = 0;\n        \n        // Calculate fees\n        if (_amount > 0 && pool.depositFeeBP > 0) {\n            depositFee = _amount.mul(pool.depositFeeBP).div(10000);\n            depositFeeHalf = depositFee.div(2);\n        }\n\n        user.amount = user.amount.add(_amount).sub(depositFeeHalf).sub(depositFeeHalf);\n\n        uint256 rewardBal = getAvailableRewardBalance();\n        uint256 diff = 0;\n\n        if (rewardBal < pending) {\n            diff = pending.sub(rewardBal);\n            emit InsufficientRewardpool();\n        }\n\n        user.rewardDebt = (user.amount.mul(pool.accRewardPerShare).div(1e12)).sub(diff);\n\n        if (_amount > 0) {\n            pool.totalStake = pool.totalStake.add(_amount).sub(depositFeeHalf).sub(depositFeeHalf);\n            pool.stakingToken.safeTransferFrom(address(msg.sender), address(this), _amount);\n\n            if (depositFeeHalf > 0) {\n                pool.stakingToken.safeTransfer(feeAddA, depositFeeHalf);\n                pool.stakingToken.safeTransfer(feeAddB, depositFeeHalf);\n            }\n            emit Deposit(msg.sender, _pid, _amount);\n        }\n\n        safeRewardTransfer(msg.sender, pending);\n    }\n\n    /**\n     * @dev withdraw _amount of a given staking token\n     * @param _token  The staking token to be withdrawn\n     * @param _amount  The amount of tokens to withdraw\n     */\n    function withdraw(IERC20 _token, uint256 _amount) \n        public \n    {\n        require(stakingTokenIndexes[address(_token)].added, \"invalid token\");\n        \n        uint256 _pid = stakingTokenIndexes[address(_token)].index;\n        StakingToken storage pool = stakingTokens[_pid];\n        UserInfo storage user = userInfo[_pid][msg.sender];\n        require(user.amount >= _amount, \"invalid amount specified\");\n\n        checkpoint(_pid);\n        uint256 pending = user.amount.mul(pool.accRewardPerShare).div(1e12).sub(user.rewardDebt);\n        user.amount = user.amount.sub(_amount);\n\n        uint256 rewardBal = getAvailableRewardBalance();\n        uint256 diff = 0;\n        \n        if (rewardBal < pending) {\n            diff = pending.sub(rewardBal);\n            emit InsufficientRewardpool();\n        }\n\n        user.rewardDebt = (user.amount.mul(pool.accRewardPerShare).div(1e12)).sub(diff);\n\n        safeRewardTransfer(msg.sender, pending);\n        \n        if(_amount > 0) {\n            pool.totalStake = pool.totalStake.sub(_amount);\n            pool.stakingToken.safeTransfer(address(msg.sender), _amount);\n\n            emit Withdraw(msg.sender, _pid, _amount);\n        }\n    }\n\n    // WITHDRAW REWARDS TOKENS ONLY (Leave deposit staked)\n    function withdrawRewards(IERC20 _token)\n        public\n    {\n        require(stakingTokenIndexes[address(_token)].added, \"invalid token\");\n        \n        uint256 _pid = stakingTokenIndexes[address(_token)].index;\n        StakingToken storage pool = stakingTokens[_pid];\n\n        UserInfo storage user = userInfo[_pid][msg.sender];\n\n        checkpoint(_pid);\n        uint256 pending = user.amount.mul(pool.accRewardPerShare).div(1e12).sub(user.rewardDebt);\n        uint256 rewardBal = getAvailableRewardBalance();\n        uint256 diff = 0;\n        \n        if (rewardBal < pending) {\n            diff = pending.sub(rewardBal);\n            emit InsufficientRewardpool();\n        }\n\n        user.rewardDebt = (user.amount.mul(pool.accRewardPerShare).div(1e12)).sub(diff);\n\n        safeRewardTransfer(msg.sender, pending);\n        emit WithdrawRewards(msg.sender, pending);\n        \n    }\n\n    /**\n     * @dev withdraw all staked funds of a given token, regardless of reward logic\n     * To be used in an emergency case if reward logic fails and tokens would get locked otherwise\n     * @param _token  The staking token to withdraw funds from\n     */\n    function emergencyWithdraw(IERC20 _token) \n        public \n    {\n        require(stakingTokenIndexes[address(_token)].added, \"invalid token\");\n        \n        uint256 _pid = stakingTokenIndexes[address(_token)].index;\n        StakingToken storage pool = stakingTokens[_pid];\n        UserInfo storage user = userInfo[_pid][msg.sender];\n        uint256 _amount = user.amount;\n        user.amount = 0;\n        user.rewardDebt = 0;\n\n        pool.totalStake = pool.totalStake.sub(_amount);\n        pool.stakingToken.safeTransfer(address(msg.sender), _amount);\n        \n        emit EmergencyWithdraw(msg.sender, _pid, _amount);\n    }\n\n    /**\n     * @dev Internal function to send rewards while checking for potential imbalances\n     * Note: if available reward is less than calculated amount, reward will still take place\n     * And pending reward calculations might \n     * @param _to  the target address of the reward\n     * @param _amount  the amount of reward to transfer\n     */\n    function safeRewardTransfer(address _to, uint256 _amount)\n        internal \n    {\n        uint256 rewardBal = getAvailableRewardBalance();\n        if (_amount > 0) {\n            if (_amount > rewardBal) {\n                rewardToken.transfer(_to, rewardBal);\n            } else {\n                rewardToken.transfer(_to, _amount);\n            }\n        }\n    }\n\n    // User this to determine the difference betweem the reward tokens balance and user deposits (KEYFI)\n    function getAvailableRewardBalance() \n        public\n        view\n        returns (uint256)\n    {\n        uint256 totalKeyfiStake = 0;\n\n        if(stakingTokenIndexes[address(rewardToken)].added) {\n            uint256 _pid = stakingTokenIndexes[address(rewardToken)].index;\n            StakingToken storage pool = stakingTokens[_pid];\n            totalKeyfiStake = pool.totalStake;\n        }\n\n        return rewardToken.balanceOf(address(this)).sub(totalKeyfiStake);\n    }\n\n    /**\n     * @dev Calculate remaining blocks left according to current reward supply and rate\n     * Useful for contract owner to either re-supply or migrate to an alternate reward solution\n     */\n    function rewardBlocksLeft() \n        public\n        view\n        returns (uint256)\n    {\n        uint256 balance = getAvailableRewardBalance();\n        return balance.div(rewardPerBlock);\n    }\n\n    function setFeeAddressA(address _feeAddress) \n        public\n        onlyOwner\n    {\n        feeAddA = _feeAddress;\n        emit SetFeeAddressA(msg.sender, _feeAddress);\n    }\n\n    function setFeeAddressB(address _feeAddress) \n        public\n        onlyOwner\n    {\n        feeAddB = _feeAddress;\n        emit SetFeeAddressB(msg.sender, _feeAddress);\n    }\n\n}\n",
  "sourcePath": "/Users/altninja/v2-staking/contracts/RewardPool.sol",
  "compiler": {
    "name": "solc",
    "version": "0.7.6+commit.7338295f.Emscripten.clang"
  },
  "schemaVersion": "3.4.0",
  "updatedAt": "2021-04-26T19:30:46.229Z",
  "networkType": "ethereum",
  "devdoc": {
    "details": "Implementation of Reward logic for KEYFI token, based on SushiSwap's MasterChef.",
    "kind": "dev",
    "methods": {
      "addStakingToken(uint256,address,uint16)": {
        "details": "adds a token to the list of allowed staking tokens",
        "params": {
          "_allocPoint": " The \"weight\" of this token in relation to other allowed tokens.",
          "_depositFeeBP": " deposit fee basis points to be deducted on each deposit",
          "_stakingToken": " The token to be added."
        }
      },
      "checkpoint(uint256)": {
        "details": "Calculates all reward rates for all staking tokens since last checkpoint.  Should be called before any balance-changing operations (e.g. deposit, withdraw)",
        "params": {
          "_pid": " The index of the token in the array of staking tokens"
        }
      },
      "deposit(address,uint256)": {
        "details": "deposit _amount into a given _token pool",
        "params": {
          "_amount": " The amount of tokens to be staked",
          "_token": " The staking token to be deposited"
        }
      },
      "emergencyWithdraw(address)": {
        "details": "withdraw all staked funds of a given token, regardless of reward logic To be used in an emergency case if reward logic fails and tokens would get locked otherwise",
        "params": {
          "_token": " The staking token to withdraw funds from"
        }
      },
      "getMultiplier(uint256,uint256)": {
        "details": "gets multiplier factor for possible bonuses within any given period",
        "params": {
          "_from": " starting block",
          "_to": " last block of the period"
        }
      },
      "massUpdateTokens()": {
        "details": "invokes a checkpoint update on all staking tokens in the list"
      },
      "owner()": {
        "details": "Returns the address of the current owner."
      },
      "pendingReward(address,address)": {
        "details": "calculates pending reward for a given staking token and a user",
        "params": {
          "_token": " The staking token",
          "_user": " The stakeholder "
        }
      },
      "renounceOwnership()": {
        "details": "Leaves the contract without owner. It will not be possible to call `onlyOwner` functions anymore. Can only be called by the current owner. NOTE: Renouncing ownership will leave the contract without an owner, thereby removing any functionality that is only available to the owner."
      },
      "rewardBlocksLeft()": {
        "details": "Calculate remaining blocks left according to current reward supply and rate Useful for contract owner to either re-supply or migrate to an alternate reward solution"
      },
      "setAllocPoint(address,uint256,uint16)": {
        "details": "changes the weight allocation for a particular token",
        "params": {
          "_allocPoint": " The allocation points set to this token",
          "_token": " The token to be configured."
        }
      },
      "transferOwnership(address)": {
        "details": "Transfers ownership of the contract to a new account (`newOwner`). Can only be called by the current owner."
      },
      "withdraw(address,uint256)": {
        "details": "withdraw _amount of a given staking token",
        "params": {
          "_amount": " The amount of tokens to withdraw",
          "_token": " The staking token to be withdrawn"
        }
      }
    },
    "title": "RewardPool",
    "version": 1
  },
  "userdoc": {
    "kind": "user",
    "methods": {},
    "version": 1
  }
}