{
  "contractName": "RewardPool",
  "abi": [
    {
      "inputs": [
        {
          "internalType": "contract KeyfiToken",
          "name": "_rewardToken",
          "type": "address"
        },
        {
          "internalType": "uint256",
          "name": "_rewardPerBlock",
          "type": "uint256"
        },
        {
          "internalType": "uint256",
          "name": "_startBlock",
          "type": "uint256"
        },
        {
          "internalType": "uint256",
          "name": "_bonusEndBlock",
          "type": "uint256"
        },
        {
          "internalType": "uint256",
          "name": "_bonusMultiplier",
          "type": "uint256"
        },
        {
          "internalType": "contract Whitelist",
          "name": "_whitelist",
          "type": "address"
        }
      ],
      "stateMutability": "nonpayable",
      "type": "constructor"
    },
    {
      "anonymous": false,
      "inputs": [
        {
          "indexed": true,
          "internalType": "address",
          "name": "user",
          "type": "address"
        },
        {
          "indexed": true,
          "internalType": "uint256",
          "name": "pid",
          "type": "uint256"
        },
        {
          "indexed": false,
          "internalType": "uint256",
          "name": "amount",
          "type": "uint256"
        }
      ],
      "name": "Deposit",
      "type": "event"
    },
    {
      "anonymous": false,
      "inputs": [
        {
          "indexed": true,
          "internalType": "address",
          "name": "user",
          "type": "address"
        },
        {
          "indexed": true,
          "internalType": "uint256",
          "name": "pid",
          "type": "uint256"
        },
        {
          "indexed": false,
          "internalType": "uint256",
          "name": "amount",
          "type": "uint256"
        }
      ],
      "name": "EmergencyWithdraw",
      "type": "event"
    },
    {
      "anonymous": false,
      "inputs": [
        {
          "indexed": true,
          "internalType": "address",
          "name": "previousOwner",
          "type": "address"
        },
        {
          "indexed": true,
          "internalType": "address",
          "name": "newOwner",
          "type": "address"
        }
      ],
      "name": "OwnershipTransferred",
      "type": "event"
    },
    {
      "anonymous": false,
      "inputs": [
        {
          "indexed": true,
          "internalType": "address",
          "name": "token",
          "type": "address"
        },
        {
          "indexed": false,
          "internalType": "uint256",
          "name": "allocPoints",
          "type": "uint256"
        }
      ],
      "name": "TokenAdded",
      "type": "event"
    },
    {
      "anonymous": false,
      "inputs": [
        {
          "indexed": true,
          "internalType": "address",
          "name": "token",
          "type": "address"
        }
      ],
      "name": "TokenRemoved",
      "type": "event"
    },
    {
      "anonymous": false,
      "inputs": [
        {
          "indexed": true,
          "internalType": "address",
          "name": "user",
          "type": "address"
        },
        {
          "indexed": true,
          "internalType": "uint256",
          "name": "pid",
          "type": "uint256"
        },
        {
          "indexed": false,
          "internalType": "uint256",
          "name": "amount",
          "type": "uint256"
        }
      ],
      "name": "Withdraw",
      "type": "event"
    },
    {
      "anonymous": false,
      "inputs": [
        {
          "indexed": true,
          "internalType": "address",
          "name": "user",
          "type": "address"
        },
        {
          "indexed": false,
          "internalType": "uint256",
          "name": "amount",
          "type": "uint256"
        }
      ],
      "name": "WithdrawRewards",
      "type": "event"
    },
    {
      "inputs": [],
      "name": "bonusEndBlock",
      "outputs": [
        {
          "internalType": "uint256",
          "name": "",
          "type": "uint256"
        }
      ],
      "stateMutability": "view",
      "type": "function",
      "constant": true
    },
    {
      "inputs": [],
      "name": "bonusMultiplier",
      "outputs": [
        {
          "internalType": "uint256",
          "name": "",
          "type": "uint256"
        }
      ],
      "stateMutability": "view",
      "type": "function",
      "constant": true
    },
    {
      "inputs": [],
      "name": "owner",
      "outputs": [
        {
          "internalType": "address",
          "name": "",
          "type": "address"
        }
      ],
      "stateMutability": "view",
      "type": "function",
      "constant": true
    },
    {
      "inputs": [],
      "name": "renounceOwnership",
      "outputs": [],
      "stateMutability": "nonpayable",
      "type": "function"
    },
    {
      "inputs": [],
      "name": "rewardPerBlock",
      "outputs": [
        {
          "internalType": "uint256",
          "name": "",
          "type": "uint256"
        }
      ],
      "stateMutability": "view",
      "type": "function",
      "constant": true
    },
    {
      "inputs": [],
      "name": "rewardToken",
      "outputs": [
        {
          "internalType": "contract KeyfiToken",
          "name": "",
          "type": "address"
        }
      ],
      "stateMutability": "view",
      "type": "function",
      "constant": true
    },
    {
      "inputs": [
        {
          "internalType": "address",
          "name": "",
          "type": "address"
        }
      ],
      "name": "stakingTokenIndexes",
      "outputs": [
        {
          "internalType": "uint256",
          "name": "index",
          "type": "uint256"
        },
        {
          "internalType": "bool",
          "name": "added",
          "type": "bool"
        }
      ],
      "stateMutability": "view",
      "type": "function",
      "constant": true
    },
    {
      "inputs": [
        {
          "internalType": "uint256",
          "name": "",
          "type": "uint256"
        }
      ],
      "name": "stakingTokens",
      "outputs": [
        {
          "internalType": "contract IERC20",
          "name": "stakingToken",
          "type": "address"
        },
        {
          "internalType": "uint256",
          "name": "allocPoint",
          "type": "uint256"
        },
        {
          "internalType": "uint256",
          "name": "lastRewardBlock",
          "type": "uint256"
        },
        {
          "internalType": "uint256",
          "name": "accRewardPerShare",
          "type": "uint256"
        }
      ],
      "stateMutability": "view",
      "type": "function",
      "constant": true
    },
    {
      "inputs": [],
      "name": "startBlock",
      "outputs": [
        {
          "internalType": "uint256",
          "name": "",
          "type": "uint256"
        }
      ],
      "stateMutability": "view",
      "type": "function",
      "constant": true
    },
    {
      "inputs": [],
      "name": "totalAllocPoint",
      "outputs": [
        {
          "internalType": "uint256",
          "name": "",
          "type": "uint256"
        }
      ],
      "stateMutability": "view",
      "type": "function",
      "constant": true
    },
    {
      "inputs": [
        {
          "internalType": "address",
          "name": "newOwner",
          "type": "address"
        }
      ],
      "name": "transferOwnership",
      "outputs": [],
      "stateMutability": "nonpayable",
      "type": "function"
    },
    {
      "inputs": [
        {
          "internalType": "uint256",
          "name": "",
          "type": "uint256"
        },
        {
          "internalType": "address",
          "name": "",
          "type": "address"
        }
      ],
      "name": "userInfo",
      "outputs": [
        {
          "internalType": "uint256",
          "name": "amount",
          "type": "uint256"
        },
        {
          "internalType": "uint256",
          "name": "rewardDebt",
          "type": "uint256"
        }
      ],
      "stateMutability": "view",
      "type": "function",
      "constant": true
    },
    {
      "inputs": [],
      "name": "whitelist",
      "outputs": [
        {
          "internalType": "contract Whitelist",
          "name": "",
          "type": "address"
        }
      ],
      "stateMutability": "view",
      "type": "function",
      "constant": true
    },
    {
      "inputs": [],
      "name": "stakingTokensCount",
      "outputs": [
        {
          "internalType": "uint256",
          "name": "",
          "type": "uint256"
        }
      ],
      "stateMutability": "view",
      "type": "function",
      "constant": true
    },
    {
      "inputs": [
        {
          "internalType": "uint256",
          "name": "_allocPoint",
          "type": "uint256"
        },
        {
          "internalType": "contract IERC20",
          "name": "_stakingToken",
          "type": "address"
        }
      ],
      "name": "addStakingToken",
      "outputs": [],
      "stateMutability": "nonpayable",
      "type": "function"
    },
    {
      "inputs": [
        {
          "internalType": "contract IERC20",
          "name": "_token",
          "type": "address"
        }
      ],
      "name": "isStakingToken",
      "outputs": [
        {
          "internalType": "bool",
          "name": "",
          "type": "bool"
        }
      ],
      "stateMutability": "view",
      "type": "function",
      "constant": true
    },
    {
      "inputs": [
        {
          "internalType": "contract IERC20",
          "name": "_token",
          "type": "address"
        },
        {
          "internalType": "uint256",
          "name": "_allocPoint",
          "type": "uint256"
        }
      ],
      "name": "set",
      "outputs": [],
      "stateMutability": "nonpayable",
      "type": "function"
    },
    {
      "inputs": [
        {
          "internalType": "uint256",
          "name": "_from",
          "type": "uint256"
        },
        {
          "internalType": "uint256",
          "name": "_to",
          "type": "uint256"
        }
      ],
      "name": "getMultiplier",
      "outputs": [
        {
          "internalType": "uint256",
          "name": "",
          "type": "uint256"
        }
      ],
      "stateMutability": "view",
      "type": "function",
      "constant": true
    },
    {
      "inputs": [
        {
          "internalType": "contract IERC20",
          "name": "_token",
          "type": "address"
        },
        {
          "internalType": "address",
          "name": "_user",
          "type": "address"
        }
      ],
      "name": "pendingReward",
      "outputs": [
        {
          "internalType": "uint256",
          "name": "",
          "type": "uint256"
        }
      ],
      "stateMutability": "view",
      "type": "function",
      "constant": true
    },
    {
      "inputs": [],
      "name": "massUpdateTokens",
      "outputs": [],
      "stateMutability": "nonpayable",
      "type": "function"
    },
    {
      "inputs": [
        {
          "internalType": "uint256",
          "name": "_pid",
          "type": "uint256"
        }
      ],
      "name": "checkpoint",
      "outputs": [],
      "stateMutability": "nonpayable",
      "type": "function"
    },
    {
      "inputs": [
        {
          "internalType": "contract IERC20",
          "name": "_token",
          "type": "address"
        }
      ],
      "name": "getBalance",
      "outputs": [
        {
          "internalType": "uint256",
          "name": "",
          "type": "uint256"
        }
      ],
      "stateMutability": "view",
      "type": "function",
      "constant": true
    },
    {
      "inputs": [
        {
          "internalType": "contract IERC20",
          "name": "_token",
          "type": "address"
        },
        {
          "internalType": "uint256",
          "name": "_amount",
          "type": "uint256"
        }
      ],
      "name": "deposit",
      "outputs": [],
      "stateMutability": "nonpayable",
      "type": "function"
    },
    {
      "inputs": [
        {
          "internalType": "contract IERC20",
          "name": "_token",
          "type": "address"
        },
        {
          "internalType": "uint256",
          "name": "_amount",
          "type": "uint256"
        }
      ],
      "name": "withdraw",
      "outputs": [],
      "stateMutability": "nonpayable",
      "type": "function"
    },
    {
      "inputs": [
        {
          "internalType": "contract IERC20",
          "name": "_token",
          "type": "address"
        }
      ],
      "name": "withdrawRewards",
      "outputs": [],
      "stateMutability": "nonpayable",
      "type": "function"
    },
    {
      "inputs": [
        {
          "internalType": "contract IERC20",
          "name": "_token",
          "type": "address"
        }
      ],
      "name": "emergencyWithdraw",
      "outputs": [],
      "stateMutability": "nonpayable",
      "type": "function"
    },
    {
      "inputs": [],
      "name": "rewardBlocksLeft",
      "outputs": [
        {
          "internalType": "uint256",
          "name": "",
          "type": "uint256"
        }
      ],
      "stateMutability": "view",
      "type": "function",
      "constant": true
    }
  ],
  "bytecode": "0x60e060405260006006553480156200001657600080fd5b5060405162003c4638038062003c46833981810160405260c08110156200003c57600080fd5b81019080805190602001909291908051906020019092919080519060200190929190805190602001909291908051906020019092919080519060200190929190505050600062000091620001d160201b60201c565b9050806000806101000a81548173ffffffffffffffffffffffffffffffffffffffff021916908373ffffffffffffffffffffffffffffffffffffffff1602179055508073ffffffffffffffffffffffffffffffffffffffff16600073ffffffffffffffffffffffffffffffffffffffff167f8be0079c531659141344cd1fd0a4f28419497f9722a3daafe3b4186f6b6457e060405160405180910390a3508573ffffffffffffffffffffffffffffffffffffffff1660808173ffffffffffffffffffffffffffffffffffffffff1660601b81525050846001819055508260a08181525050836007819055508160c0818152505080600260006101000a81548173ffffffffffffffffffffffffffffffffffffffff021916908373ffffffffffffffffffffffffffffffffffffffff160217905550505050505050620001d9565b600033905090565b60805160601c60a05160c0516139f76200024f600039806119715280611a345280611e68525080610817528061194752806119ba5280611a015280611a59525080610d87528061130a5280611e8f52806120635280612a565280612d0c5280613049528061311e52806131f052506139f76000f3fe608060405234801561001057600080fd5b50600436106101a95760003560e01c80638da5cb5b116100f9578063cb4e842411610097578063f2fde38b11610071578063f2fde38b146106f1578063f3fef3a314610735578063f7c618c114610783578063f8b2cb4f146107b7576101a9565b8063cb4e84241461066b578063e3283c0814610675578063ed64bab2146106c3576101a9565b806393f1a40b116100d357806393f1a40b1461054e5780639ced7e76146105b7578063a8b973a11461062f578063ae7805b91461064d576101a9565b80638da5cb5b1461049a5780638dbb1e3a146104ce57806393e59dc11461051a576101a9565b806347e7ef24116101665780636ac2b693116101405780636ac2b693146103cd5780636ff1c9bc1461042e578063715018a6146104725780638ae39cac1461047c576101a9565b806347e7ef241461034357806348cd4cb114610391578063675b6367146103af576101a9565b806317caf6f1146101ae5780631aed6553146101cc578063344e5e34146101ea57806336a8e097146102575780633825d828146102b157806342d86693146102ff575b600080fd5b6101b661080f565b6040518082815260200191505060405180910390f35b6101d4610815565b6040518082815260200191505060405180910390f35b6102166004803603602081101561020057600080fd5b8101908080359060200190929190505050610839565b604051808573ffffffffffffffffffffffffffffffffffffffff16815260200184815260200183815260200182815260200194505050505060405180910390f35b6102996004803603602081101561026d57600080fd5b81019080803573ffffffffffffffffffffffffffffffffffffffff169060200190929190505050610899565b60405180821515815260200191505060405180910390f35b6102fd600480360360408110156102c757600080fd5b81019080803573ffffffffffffffffffffffffffffffffffffffff16906020019092919080359060200190929190505050610966565b005b6103416004803603602081101561031557600080fd5b81019080803573ffffffffffffffffffffffffffffffffffffffff169060200190929190505050610bb2565b005b61038f6004803603604081101561035957600080fd5b81019080803573ffffffffffffffffffffffffffffffffffffffff16906020019092919080359060200190929190505050610fe0565b005b6103996114f6565b6040518082815260200191505060405180910390f35b6103b76114fc565b6040518082815260200191505060405180910390f35b61040f600480360360208110156103e357600080fd5b81019080803573ffffffffffffffffffffffffffffffffffffffff169060200190929190505050611509565b6040518083815260200182151581526020019250505060405180910390f35b6104706004803603602081101561044457600080fd5b81019080803573ffffffffffffffffffffffffffffffffffffffff16906020019092919050505061153a565b005b61047a611778565b005b6104846118fe565b6040518082815260200191505060405180910390f35b6104a2611904565b604051808273ffffffffffffffffffffffffffffffffffffffff16815260200191505060405180910390f35b610504600480360360408110156104e457600080fd5b81019080803590602001909291908035906020019092919050505061192d565b6040518082815260200191505060405180910390f35b610522611aab565b604051808273ffffffffffffffffffffffffffffffffffffffff16815260200191505060405180910390f35b61059a6004803603604081101561056457600080fd5b8101908080359060200190929190803573ffffffffffffffffffffffffffffffffffffffff169060200190929190505050611ad1565b604051808381526020018281526020019250505060405180910390f35b610619600480360360408110156105cd57600080fd5b81019080803573ffffffffffffffffffffffffffffffffffffffff169060200190929190803573ffffffffffffffffffffffffffffffffffffffff169060200190929190505050611b02565b6040518082815260200191505060405180910390f35b610637611e66565b6040518082815260200191505060405180910390f35b610655611e8a565b6040518082815260200191505060405180910390f35b610673611f6c565b005b6106c16004803603604081101561068b57600080fd5b8101908080359060200190929190803573ffffffffffffffffffffffffffffffffffffffff169060200190929190505050611f99565b005b6106ef600480360360208110156106d957600080fd5b810190808035906020019092919050505061238f565b005b6107336004803603602081101561070757600080fd5b81019080803573ffffffffffffffffffffffffffffffffffffffff1690602001909291905050506125dd565b005b6107816004803603604081101561074b57600080fd5b81019080803573ffffffffffffffffffffffffffffffffffffffff169060200190929190803590602001909291905050506127e8565b005b61078b612d0a565b604051808273ffffffffffffffffffffffffffffffffffffffff16815260200191505060405180910390f35b6107f9600480360360208110156107cd57600080fd5b81019080803573ffffffffffffffffffffffffffffffffffffffff169060200190929190505050612d2e565b6040518082815260200191505060405180910390f35b60065481565b7f000000000000000000000000000000000000000000000000000000000000000081565b6003818154811061084957600080fd5b90600052602060002090600402016000915090508060000160009054906101000a900473ffffffffffffffffffffffffffffffffffffffff16908060010154908060020154908060030154905084565b6000600460008373ffffffffffffffffffffffffffffffffffffffff1673ffffffffffffffffffffffffffffffffffffffff16815260200190815260200160002060010160009054906101000a900460ff1661095d576040517f08c379a000000000000000000000000000000000000000000000000000000000815260040180806020018281038252601c8152602001807f746f6b656e20646f6573206e6f7420657869737420696e206c6973740000000081525060200191505060405180910390fd5b60019050919050565b61096e612e9b565b73ffffffffffffffffffffffffffffffffffffffff1660008054906101000a900473ffffffffffffffffffffffffffffffffffffffff1673ffffffffffffffffffffffffffffffffffffffff1614610a2e576040517f08c379a00000000000000000000000000000000000000000000000000000000081526004018080602001828103825260208152602001807f4f776e61626c653a2063616c6c6572206973206e6f7420746865206f776e657281525060200191505060405180910390fd5b600460008373ffffffffffffffffffffffffffffffffffffffff1673ffffffffffffffffffffffffffffffffffffffff16815260200190815260200160002060010160009054906101000a900460ff16610af0576040517f08c379a000000000000000000000000000000000000000000000000000000000815260040180806020018281038252601c8152602001807f746f6b656e20646f6573206e6f7420657869737420696e206c6973740000000081525060200191505060405180910390fd5b610af8611f6c565b6000600460008473ffffffffffffffffffffffffffffffffffffffff1673ffffffffffffffffffffffffffffffffffffffff168152602001908152602001600020600001549050610b8482610b7660038481548110610b5357fe5b906000526020600020906004020160010154600654612ea390919063ffffffff16565b612eed90919063ffffffff16565b6006819055508160038281548110610b9857fe5b906000526020600020906004020160010181905550505050565b600460008273ffffffffffffffffffffffffffffffffffffffff1673ffffffffffffffffffffffffffffffffffffffff16815260200190815260200160002060010160009054906101000a900460ff16610c74576040517f08c379a000000000000000000000000000000000000000000000000000000000815260040180806020018281038252600d8152602001807f696e76616c696420746f6b656e0000000000000000000000000000000000000081525060200191505060405180910390fd5b6000600460008373ffffffffffffffffffffffffffffffffffffffff1673ffffffffffffffffffffffffffffffffffffffff168152602001908152602001600020600001549050600060038281548110610cca57fe5b9060005260206000209060040201905060006005600084815260200190815260200160002060003373ffffffffffffffffffffffffffffffffffffffff1673ffffffffffffffffffffffffffffffffffffffff1681526020019081526020016000209050610d378361238f565b6000610d818260010154610d7364e8d4a51000610d6587600301548760000154612f7590919063ffffffff16565b612ffb90919063ffffffff16565b612ea390919063ffffffff16565b905060007f000000000000000000000000000000000000000000000000000000000000000073ffffffffffffffffffffffffffffffffffffffff166370a08231306040518263ffffffff1660e01b8152600401808273ffffffffffffffffffffffffffffffffffffffff16815260200191505060206040518083038186803b158015610e0c57600080fd5b505afa158015610e20573d6000803e3d6000fd5b505050506040513d6020811015610e3657600080fd5b81019080805190602001909291905050509050600082821015610e6957610e668284612ea390919063ffffffff16565b90505b610ead81610e9f64e8d4a51000610e9189600301548960000154612f7590919063ffffffff16565b612ffb90919063ffffffff16565b612ea390919063ffffffff16565b8460010181905550600260009054906101000a900473ffffffffffffffffffffffffffffffffffffffff1673ffffffffffffffffffffffffffffffffffffffff16633af32abf336040518263ffffffff1660e01b8152600401808273ffffffffffffffffffffffffffffffffffffffff16815260200191505060206040518083038186803b158015610f3e57600080fd5b505afa158015610f52573d6000803e3d6000fd5b505050506040513d6020811015610f6857600080fd5b810190808051906020019092919050505015610fd757610f883384613045565b3373ffffffffffffffffffffffffffffffffffffffff167faa1377f7ec93c239e959efa811f7b8554c036fd7a706c23e58024626a8f3db96846040518082815260200191505060405180910390a25b50505050505050565b600460008373ffffffffffffffffffffffffffffffffffffffff1673ffffffffffffffffffffffffffffffffffffffff16815260200190815260200160002060010160009054906101000a900460ff166110a2576040517f08c379a000000000000000000000000000000000000000000000000000000000815260040180806020018281038252600d8152602001807f696e76616c696420746f6b656e0000000000000000000000000000000000000081525060200191505060405180910390fd5b600260009054906101000a900473ffffffffffffffffffffffffffffffffffffffff1673ffffffffffffffffffffffffffffffffffffffff16633af32abf336040518263ffffffff1660e01b8152600401808273ffffffffffffffffffffffffffffffffffffffff16815260200191505060206040518083038186803b15801561112b57600080fd5b505afa15801561113f573d6000803e3d6000fd5b505050506040513d602081101561115557600080fd5b81019080805190602001909291905050506111d8576040517f08c379a000000000000000000000000000000000000000000000000000000000815260040180806020018281038252601e8152602001807f73656e6465722061646472657373206973206e6f7420656c696769626c65000081525060200191505060405180910390fd5b6000600460008473ffffffffffffffffffffffffffffffffffffffff1673ffffffffffffffffffffffffffffffffffffffff1681526020019081526020016000206000015490506112288161238f565b60006003828154811061123757fe5b9060005260206000209060040201905060006005600084815260200190815260200160002060003373ffffffffffffffffffffffffffffffffffffffff1673ffffffffffffffffffffffffffffffffffffffff168152602001908152602001600020905060006112e582600101546112d764e8d4a510006112c987600301548760000154612f7590919063ffffffff16565b612ffb90919063ffffffff16565b612ea390919063ffffffff16565b90506112fe858360000154612eed90919063ffffffff16565b826000018190555060007f000000000000000000000000000000000000000000000000000000000000000073ffffffffffffffffffffffffffffffffffffffff166370a08231306040518263ffffffff1660e01b8152600401808273ffffffffffffffffffffffffffffffffffffffff16815260200191505060206040518083038186803b15801561138f57600080fd5b505afa1580156113a3573d6000803e3d6000fd5b505050506040513d60208110156113b957600080fd5b810190808051906020019092919050505090506000828210156113ec576113e98284612ea390919063ffffffff16565b90505b6114308161142264e8d4a5100061141489600301548960000154612f7590919063ffffffff16565b612ffb90919063ffffffff16565b612ea390919063ffffffff16565b84600101819055506114423384613045565b60008711156114ec5761149c3330898860000160009054906101000a900473ffffffffffffffffffffffffffffffffffffffff1673ffffffffffffffffffffffffffffffffffffffff166132c2909392919063ffffffff16565b853373ffffffffffffffffffffffffffffffffffffffff167f90890809c654f11d6e72a28fa60149770a0d11ec6c92319d6ceb2bb0a4ea1a15896040518082815260200191505060405180910390a35b5050505050505050565b60075481565b6000600380549050905090565b60046020528060005260406000206000915090508060000154908060010160009054906101000a900460ff16905082565b600460008273ffffffffffffffffffffffffffffffffffffffff1673ffffffffffffffffffffffffffffffffffffffff16815260200190815260200160002060010160009054906101000a900460ff166115fc576040517f08c379a000000000000000000000000000000000000000000000000000000000815260040180806020018281038252600d8152602001807f696e76616c696420746f6b656e0000000000000000000000000000000000000081525060200191505060405180910390fd5b6000600460008373ffffffffffffffffffffffffffffffffffffffff1673ffffffffffffffffffffffffffffffffffffffff16815260200190815260200160002060000154905060006003828154811061165257fe5b9060005260206000209060040201905060006005600084815260200190815260200160002060003373ffffffffffffffffffffffffffffffffffffffff1673ffffffffffffffffffffffffffffffffffffffff1681526020019081526020016000209050600081600001549050600082600001819055506000826001018190555061172233828560000160009054906101000a900473ffffffffffffffffffffffffffffffffffffffff1673ffffffffffffffffffffffffffffffffffffffff166133839092919063ffffffff16565b833373ffffffffffffffffffffffffffffffffffffffff167fbb757047c2b5f3974fe26b7c10f732e7bce710b0952a71082702781e62ae0595836040518082815260200191505060405180910390a35050505050565b611780612e9b565b73ffffffffffffffffffffffffffffffffffffffff1660008054906101000a900473ffffffffffffffffffffffffffffffffffffffff1673ffffffffffffffffffffffffffffffffffffffff1614611840576040517f08c379a00000000000000000000000000000000000000000000000000000000081526004018080602001828103825260208152602001807f4f776e61626c653a2063616c6c6572206973206e6f7420746865206f776e657281525060200191505060405180910390fd5b600073ffffffffffffffffffffffffffffffffffffffff1660008054906101000a900473ffffffffffffffffffffffffffffffffffffffff1673ffffffffffffffffffffffffffffffffffffffff167f8be0079c531659141344cd1fd0a4f28419497f9722a3daafe3b4186f6b6457e060405160405180910390a360008060006101000a81548173ffffffffffffffffffffffffffffffffffffffff021916908373ffffffffffffffffffffffffffffffffffffffff160217905550565b60015481565b60008060009054906101000a900473ffffffffffffffffffffffffffffffffffffffff16905090565b600060075483101561194157600754611943565b825b92507f000000000000000000000000000000000000000000000000000000000000000082116119b8576119b17f00000000000000000000000000000000000000000000000000000000000000006119a38585612ea390919063ffffffff16565b612f7590919063ffffffff16565b9050611aa5565b7f000000000000000000000000000000000000000000000000000000000000000083106119f9576119f28383612ea390919063ffffffff16565b9050611aa5565b611aa2611a2f7f000000000000000000000000000000000000000000000000000000000000000084612ea390919063ffffffff16565b611a947f0000000000000000000000000000000000000000000000000000000000000000611a86877f0000000000000000000000000000000000000000000000000000000000000000612ea390919063ffffffff16565b612f7590919063ffffffff16565b612eed90919063ffffffff16565b90505b92915050565b600260009054906101000a900473ffffffffffffffffffffffffffffffffffffffff1681565b6005602052816000526040600020602052806000526040600020600091509150508060000154908060010154905082565b6000600460008473ffffffffffffffffffffffffffffffffffffffff1673ffffffffffffffffffffffffffffffffffffffff16815260200190815260200160002060010160009054906101000a900460ff16611bc6576040517f08c379a000000000000000000000000000000000000000000000000000000000815260040180806020018281038252600d8152602001807f696e76616c696420746f6b656e0000000000000000000000000000000000000081525060200191505060405180910390fd5b6000600460008573ffffffffffffffffffffffffffffffffffffffff1673ffffffffffffffffffffffffffffffffffffffff168152602001908152602001600020600001549050600060038281548110611c1c57fe5b9060005260206000209060040201905060006005600084815260200190815260200160002060008673ffffffffffffffffffffffffffffffffffffffff1673ffffffffffffffffffffffffffffffffffffffff168152602001908152602001600020905060008260030154905060008360000160009054906101000a900473ffffffffffffffffffffffffffffffffffffffff1673ffffffffffffffffffffffffffffffffffffffff166370a08231306040518263ffffffff1660e01b8152600401808273ffffffffffffffffffffffffffffffffffffffff16815260200191505060206040518083038186803b158015611d1657600080fd5b505afa158015611d2a573d6000803e3d6000fd5b505050506040513d6020811015611d4057600080fd5b81019080805190602001909291905050509050836002015443118015611d67575060008114155b15611e15576000611d7c85600201544361192d565b9050600080866001015414611dcf57611dca600654611dbc8860010154611dae60015487612f7590919063ffffffff16565b612f7590919063ffffffff16565b612ffb90919063ffffffff16565b611dd2565b60005b9050611e10611e0184611df364e8d4a5100085612f7590919063ffffffff16565b612ffb90919063ffffffff16565b85612eed90919063ffffffff16565b935050505b611e598360010154611e4b64e8d4a51000611e3d868860000154612f7590919063ffffffff16565b612ffb90919063ffffffff16565b612ea390919063ffffffff16565b9550505050505092915050565b7f000000000000000000000000000000000000000000000000000000000000000081565b6000807f000000000000000000000000000000000000000000000000000000000000000073ffffffffffffffffffffffffffffffffffffffff166370a08231306040518263ffffffff1660e01b8152600401808273ffffffffffffffffffffffffffffffffffffffff16815260200191505060206040518083038186803b158015611f1457600080fd5b505afa158015611f28573d6000803e3d6000fd5b505050506040513d6020811015611f3e57600080fd5b81019080805190602001909291905050509050611f6660015482612ffb90919063ffffffff16565b91505090565b6000600380549050905060005b81811015611f9557611f8a8161238f565b806001019050611f79565b5050565b611fa1612e9b565b73ffffffffffffffffffffffffffffffffffffffff1660008054906101000a900473ffffffffffffffffffffffffffffffffffffffff1673ffffffffffffffffffffffffffffffffffffffff1614612061576040517f08c379a00000000000000000000000000000000000000000000000000000000081526004018080602001828103825260208152602001807f4f776e61626c653a2063616c6c6572206973206e6f7420746865206f776e657281525060200191505060405180910390fd5b7f000000000000000000000000000000000000000000000000000000000000000073ffffffffffffffffffffffffffffffffffffffff168173ffffffffffffffffffffffffffffffffffffffff161415612106576040517f08c379a00000000000000000000000000000000000000000000000000000000081526004018080602001828103825260288152602001806139046028913960400191505060405180910390fd5b600460008273ffffffffffffffffffffffffffffffffffffffff1673ffffffffffffffffffffffffffffffffffffffff16815260200190815260200160002060010160009054906101000a900460ff16156121ac576040517f08c379a00000000000000000000000000000000000000000000000000000000081526004018080602001828103825260258152602001806139736025913960400191505060405180910390fd5b6121b4611f6c565b600060075443116121c7576007546121c9565b435b90506121e083600654612eed90919063ffffffff16565b600681905550600360405180608001604052808473ffffffffffffffffffffffffffffffffffffffff1681526020018581526020018381526020016000815250908060018154018082558091505060019003906000526020600020906004020160009091909190915060008201518160000160006101000a81548173ffffffffffffffffffffffffffffffffffffffff021916908373ffffffffffffffffffffffffffffffffffffffff16021790555060208201518160010155604082015181600201556060820151816003015550506040518060400160405280600160038054905003815260200160011515815250600460008473ffffffffffffffffffffffffffffffffffffffff1673ffffffffffffffffffffffffffffffffffffffff1681526020019081526020016000206000820151816000015560208201518160010160006101000a81548160ff0219169083151502179055509050508173ffffffffffffffffffffffffffffffffffffffff167ff4c563a3ea86ff1f4275e8c207df0375a51963f2b831b7bf4da8be938d92876c846040518082815260200191505060405180910390a2505050565b6003805490508110612409576040517f08c379a00000000000000000000000000000000000000000000000000000000081526004018080602001828103825260198152602001807f746f6b656e20696e646578206f7574206f6620626f756e64730000000000000081525060200191505060405180910390fd5b60006003828154811061241857fe5b906000526020600020906004020190508060020154431161243957506125da565b60008160000160009054906101000a900473ffffffffffffffffffffffffffffffffffffffff1673ffffffffffffffffffffffffffffffffffffffff166370a08231306040518263ffffffff1660e01b8152600401808273ffffffffffffffffffffffffffffffffffffffff16815260200191505060206040518083038186803b1580156124c657600080fd5b505afa1580156124da573d6000803e3d6000fd5b505050506040513d60208110156124f057600080fd5b81019080805190602001909291905050509050600081141561251c5743826002018190555050506125da565b600061252c83600201544361192d565b905060008084600101541461257f5761257a60065461256c866001015461255e60015487612f7590919063ffffffff16565b612f7590919063ffffffff16565b612ffb90919063ffffffff16565b612582565b60005b90506125c46125b1846125a364e8d4a5100085612f7590919063ffffffff16565b612ffb90919063ffffffff16565b8560030154612eed90919063ffffffff16565b8460030181905550438460020181905550505050505b50565b6125e5612e9b565b73ffffffffffffffffffffffffffffffffffffffff1660008054906101000a900473ffffffffffffffffffffffffffffffffffffffff1673ffffffffffffffffffffffffffffffffffffffff16146126a5576040517f08c379a00000000000000000000000000000000000000000000000000000000081526004018080602001828103825260208152602001807f4f776e61626c653a2063616c6c6572206973206e6f7420746865206f776e657281525060200191505060405180910390fd5b600073ffffffffffffffffffffffffffffffffffffffff168173ffffffffffffffffffffffffffffffffffffffff16141561272b576040517f08c379a000000000000000000000000000000000000000000000000000000000815260040180806020018281038252602681526020018061392c6026913960400191505060405180910390fd5b8073ffffffffffffffffffffffffffffffffffffffff1660008054906101000a900473ffffffffffffffffffffffffffffffffffffffff1673ffffffffffffffffffffffffffffffffffffffff167f8be0079c531659141344cd1fd0a4f28419497f9722a3daafe3b4186f6b6457e060405160405180910390a3806000806101000a81548173ffffffffffffffffffffffffffffffffffffffff021916908373ffffffffffffffffffffffffffffffffffffffff16021790555050565b600460008373ffffffffffffffffffffffffffffffffffffffff1673ffffffffffffffffffffffffffffffffffffffff16815260200190815260200160002060010160009054906101000a900460ff166128aa576040517f08c379a000000000000000000000000000000000000000000000000000000000815260040180806020018281038252600d8152602001807f696e76616c696420746f6b656e0000000000000000000000000000000000000081525060200191505060405180910390fd5b6000600460008473ffffffffffffffffffffffffffffffffffffffff1673ffffffffffffffffffffffffffffffffffffffff16815260200190815260200160002060000154905060006003828154811061290057fe5b9060005260206000209060040201905060006005600084815260200190815260200160002060003373ffffffffffffffffffffffffffffffffffffffff1673ffffffffffffffffffffffffffffffffffffffff168152602001908152602001600020905083816000015410156129de576040517f08c379a00000000000000000000000000000000000000000000000000000000081526004018080602001828103825260188152602001807f696e76616c696420616d6f756e7420737065636966696564000000000000000081525060200191505060405180910390fd5b6129e78361238f565b6000612a318260010154612a2364e8d4a51000612a1587600301548760000154612f7590919063ffffffff16565b612ffb90919063ffffffff16565b612ea390919063ffffffff16565b9050612a4a858360000154612ea390919063ffffffff16565b826000018190555060007f000000000000000000000000000000000000000000000000000000000000000073ffffffffffffffffffffffffffffffffffffffff166370a08231306040518263ffffffff1660e01b8152600401808273ffffffffffffffffffffffffffffffffffffffff16815260200191505060206040518083038186803b158015612adb57600080fd5b505afa158015612aef573d6000803e3d6000fd5b505050506040513d6020811015612b0557600080fd5b81019080805190602001909291905050509050600082821015612b3857612b358284612ea390919063ffffffff16565b90505b612b7c81612b6e64e8d4a51000612b6089600301548960000154612f7590919063ffffffff16565b612ffb90919063ffffffff16565b612ea390919063ffffffff16565b8460010181905550600260009054906101000a900473ffffffffffffffffffffffffffffffffffffffff1673ffffffffffffffffffffffffffffffffffffffff16633af32abf336040518263ffffffff1660e01b8152600401808273ffffffffffffffffffffffffffffffffffffffff16815260200191505060206040518083038186803b158015612c0d57600080fd5b505afa158015612c21573d6000803e3d6000fd5b505050506040513d6020811015612c3757600080fd5b810190808051906020019092919050505015612c5857612c573384613045565b5b6000871115612d0057612cb033888760000160009054906101000a900473ffffffffffffffffffffffffffffffffffffffff1673ffffffffffffffffffffffffffffffffffffffff166133839092919063ffffffff16565b853373ffffffffffffffffffffffffffffffffffffffff167ff279e6a1f5e320cca91135676d9cb6e44ca8a08c0b88342bcdb1144f6511b568896040518082815260200191505060405180910390a35b5050505050505050565b7f000000000000000000000000000000000000000000000000000000000000000081565b6000600460008373ffffffffffffffffffffffffffffffffffffffff1673ffffffffffffffffffffffffffffffffffffffff16815260200190815260200160002060010160009054906101000a900460ff16612df2576040517f08c379a000000000000000000000000000000000000000000000000000000000815260040180806020018281038252600d8152602001807f696e76616c696420746f6b656e0000000000000000000000000000000000000081525060200191505060405180910390fd5b6000600460008473ffffffffffffffffffffffffffffffffffffffff1673ffffffffffffffffffffffffffffffffffffffff16815260200190815260200160002060000154905060006005600083815260200190815260200160002060003373ffffffffffffffffffffffffffffffffffffffff1673ffffffffffffffffffffffffffffffffffffffff1681526020019081526020016000209050806000015492505050919050565b600033905090565b6000612ee583836040518060400160405280601e81526020017f536166654d6174683a207375627472616374696f6e206f766572666c6f770000815250613425565b905092915050565b600080828401905083811015612f6b576040517f08c379a000000000000000000000000000000000000000000000000000000000815260040180806020018281038252601b8152602001807f536166654d6174683a206164646974696f6e206f766572666c6f77000000000081525060200191505060405180910390fd5b8091505092915050565b600080831415612f885760009050612ff5565b6000828402905082848281612f9957fe5b0414612ff0576040517f08c379a00000000000000000000000000000000000000000000000000000000081526004018080602001828103825260218152602001806139526021913960400191505060405180910390fd5b809150505b92915050565b600061303d83836040518060400160405280601a81526020017f536166654d6174683a206469766973696f6e206279207a65726f0000000000008152506134e5565b905092915050565b60007f000000000000000000000000000000000000000000000000000000000000000073ffffffffffffffffffffffffffffffffffffffff166370a08231306040518263ffffffff1660e01b8152600401808273ffffffffffffffffffffffffffffffffffffffff16815260200191505060206040518083038186803b1580156130ce57600080fd5b505afa1580156130e2573d6000803e3d6000fd5b505050506040513d60208110156130f857600080fd5b8101908080519060200190929190505050905060008211156132bd57808211156131ee577f000000000000000000000000000000000000000000000000000000000000000073ffffffffffffffffffffffffffffffffffffffff1663a9059cbb84836040518363ffffffff1660e01b8152600401808373ffffffffffffffffffffffffffffffffffffffff16815260200182815260200192505050602060405180830381600087803b1580156131ad57600080fd5b505af11580156131c1573d6000803e3d6000fd5b505050506040513d60208110156131d757600080fd5b8101908080519060200190929190505050506132bc565b7f000000000000000000000000000000000000000000000000000000000000000073ffffffffffffffffffffffffffffffffffffffff1663a9059cbb84846040518363ffffffff1660e01b8152600401808373ffffffffffffffffffffffffffffffffffffffff16815260200182815260200192505050602060405180830381600087803b15801561327f57600080fd5b505af1158015613293573d6000803e3d6000fd5b505050506040513d60208110156132a957600080fd5b8101908080519060200190929190505050505b5b505050565b61337d846323b872dd60e01b858585604051602401808473ffffffffffffffffffffffffffffffffffffffff1681526020018373ffffffffffffffffffffffffffffffffffffffff1681526020018281526020019350505050604051602081830303815290604052907bffffffffffffffffffffffffffffffffffffffffffffffffffffffff19166020820180517bffffffffffffffffffffffffffffffffffffffffffffffffffffffff83818316178352505050506135ab565b50505050565b6134208363a9059cbb60e01b8484604051602401808373ffffffffffffffffffffffffffffffffffffffff16815260200182815260200192505050604051602081830303815290604052907bffffffffffffffffffffffffffffffffffffffffffffffffffffffff19166020820180517bffffffffffffffffffffffffffffffffffffffffffffffffffffffff83818316178352505050506135ab565b505050565b60008383111582906134d2576040517f08c379a00000000000000000000000000000000000000000000000000000000081526004018080602001828103825283818151815260200191508051906020019080838360005b8381101561349757808201518184015260208101905061347c565b50505050905090810190601f1680156134c45780820380516001836020036101000a031916815260200191505b509250505060405180910390fd5b5060008385039050809150509392505050565b60008083118290613591576040517f08c379a00000000000000000000000000000000000000000000000000000000081526004018080602001828103825283818151815260200191508051906020019080838360005b8381101561355657808201518184015260208101905061353b565b50505050905090810190601f1680156135835780820380516001836020036101000a031916815260200191505b509250505060405180910390fd5b50600083858161359d57fe5b049050809150509392505050565b606061360d826040518060400160405280602081526020017f5361666545524332303a206c6f772d6c6576656c2063616c6c206661696c65648152508573ffffffffffffffffffffffffffffffffffffffff1661369a9092919063ffffffff16565b90506000815111156136955780806020019051602081101561362e57600080fd5b8101908080519060200190929190505050613694576040517f08c379a000000000000000000000000000000000000000000000000000000000815260040180806020018281038252602a815260200180613998602a913960400191505060405180910390fd5b5b505050565b60606136a984846000856136b2565b90509392505050565b60606136bd856138b8565b61372f576040517f08c379a000000000000000000000000000000000000000000000000000000000815260040180806020018281038252601d8152602001807f416464726573733a2063616c6c20746f206e6f6e2d636f6e747261637400000081525060200191505060405180910390fd5b600060608673ffffffffffffffffffffffffffffffffffffffff1685876040518082805190602001908083835b6020831061377f578051825260208201915060208101905060208303925061375c565b6001836020036101000a03801982511681845116808217855250505050505090500191505060006040518083038185875af1925050503d80600081146137e1576040519150601f19603f3d011682016040523d82523d6000602084013e6137e6565b606091505b509150915081156137fb5780925050506138b0565b60008151111561380e5780518082602001fd5b836040517f08c379a00000000000000000000000000000000000000000000000000000000081526004018080602001828103825283818151815260200191508051906020019080838360005b8381101561387557808201518184015260208101905061385a565b50505050905090810190601f1680156138a25780820380516001836020036101000a031916815260200191505b509250505060405180910390fd5b949350505050565b60008060007fc5d2460186f7233c927e7db2dcc703c0e500b653ca82273b7bfad8045d85a47060001b9050833f91508082141580156138fa57506000801b8214155b9250505091905056fe63616e6e6f74206164642072657761726420746f6b656e206173207374616b696e6720746f6b656e4f776e61626c653a206e6577206f776e657220697320746865207a65726f2061646472657373536166654d6174683a206d756c7469706c69636174696f6e206f766572666c6f777374616b696e6720746f6b656e20616c72656164792065786973747320696e2061727261795361666545524332303a204552433230206f7065726174696f6e20646964206e6f742073756363656564a2646970667358221220ef9d654f3c5566f0061839b99701543e44d235c334f9a2c95f1bed3fd8daa89364736f6c63430007050033",
  "immutableReferences": {
    "2471": [
      {
        "length": 32,
        "start": 3463
      },
      {
        "length": 32,
        "start": 4874
      },
      {
        "length": 32,
        "start": 7823
      },
      {
        "length": 32,
        "start": 8291
      },
      {
        "length": 32,
        "start": 10838
      },
      {
        "length": 32,
        "start": 11532
      },
      {
        "length": 32,
        "start": 12361
      },
      {
        "length": 32,
        "start": 12574
      },
      {
        "length": 32,
        "start": 12784
      }
    ],
    "2473": [
      {
        "length": 32,
        "start": 2071
      },
      {
        "length": 32,
        "start": 6471
      },
      {
        "length": 32,
        "start": 6586
      },
      {
        "length": 32,
        "start": 6657
      },
      {
        "length": 32,
        "start": 6745
      }
    ],
    "2475": [
      {
        "length": 32,
        "start": 6513
      },
      {
        "length": 32,
        "start": 6708
      },
      {
        "length": 32,
        "start": 7784
      }
    ]
  },
  "source": "// SPDX-License-Identifier: MIT\npragma solidity ^0.7.0;\n\nimport \"@openzeppelin/contracts/token/ERC20/IERC20.sol\";\nimport \"@openzeppelin/contracts/token/ERC20/SafeERC20.sol\";\nimport \"@openzeppelin/contracts/math/SafeMath.sol\";\nimport \"@openzeppelin/contracts/access/Ownable.sol\";\nimport \"./KeyfiToken.sol\";\nimport \"./Whitelist.sol\";\n\n /**\n * @title RewardPool\n * @dev Implementation of Reward logic for KEYFI token, based on SushiSwap's MasterChef.\n */\ncontract RewardPool is Ownable {\n    using SafeMath for uint256;\n    using SafeERC20 for IERC20;\n    using SafeERC20 for KeyfiToken;\n\n    // Info of each user.\n    struct UserInfo {\n        uint256 amount;     // How many LP tokens the user has provided.\n        uint256 rewardDebt; // Reward debt. See explanation below.\n        //\n        // We do some fancy math here. Basically, any point in time, the amount of reward\n        // entitled to a user but is pending to be distributed is:\n        //\n        //   pending reward = (user.amount * pool.accRewardPerShare) - user.rewardDebt\n        //\n        // Whenever a user deposits or withdraws LP tokens to a pool. Here's what happens:\n        //   1. The pool's `accRewardPerShare` (and `lastRewardBlock`) gets updated.\n        //   2. User receives the pending reward sent to his/her address.\n        //   3. User's `amount` gets updated.\n        //   4. User's `rewardDebt` gets updated.\n    }\n\n    // Info of each staking token\n    struct StakingToken {\n        IERC20 stakingToken;            // Contract address of token to be staked\n        uint256 allocPoint;             // How many allocation points assigned to this token\n        uint256 lastRewardBlock;        // Last block number that reward distribution occurred\n        uint256 accRewardPerShare;      // Accumulated reward per share, times 1e12.\n    }\n\n    struct TokenIndex {\n        uint256 index;\n        bool added;\n    }\n\n    KeyfiToken public immutable rewardToken;\n    uint256 public immutable bonusEndBlock;                   // Block number when bonus reward period ends\n    uint256 public immutable bonusMultiplier;  // Bonus muliplier for early users\n    uint256 public rewardPerBlock;                  // reward tokens distributed per block\n    Whitelist public whitelist;\n\n    StakingToken[] public stakingTokens;                                    // Info of each pool\n    mapping(address => TokenIndex) public stakingTokenIndexes;\n    mapping (uint256 => mapping (address => UserInfo)) public userInfo;     // Info of each user that stakes tokens\n    uint256 public totalAllocPoint = 0;                                     // Total allocation points. Must be the sum of all allocation points in all pools\n    uint256 public startBlock;                                              // The block number when rewards start\n\n    event TokenAdded(address indexed token, uint256 allocPoints);\n    event TokenRemoved(address indexed token);\n    event Deposit(address indexed user, uint256 indexed pid, uint256 amount);\n    event Withdraw(address indexed user, uint256 indexed pid, uint256 amount);\n    event WithdrawRewards(address indexed user, uint256 amount);\n    event EmergencyWithdraw(address indexed user, uint256 indexed pid, uint256 amount);\n\n    constructor(\n        KeyfiToken _rewardToken,\n        uint256 _rewardPerBlock,\n        uint256 _startBlock,\n        uint256 _bonusEndBlock,\n        uint256 _bonusMultiplier,\n        Whitelist _whitelist\n    ) \n    {\n        rewardToken = _rewardToken;\n        rewardPerBlock = _rewardPerBlock;\n        bonusEndBlock = _bonusEndBlock;\n        startBlock = _startBlock;\n        bonusMultiplier = _bonusMultiplier;\n        whitelist = _whitelist;\n    }\n\n    function stakingTokensCount() \n        external \n        view \n        returns (uint256) \n    {\n        return stakingTokens.length;\n    }\n\n    /**\n     * @dev adds a token to the list of allowed staking tokens\n     * @param _allocPoint  The \"weight\" of this token in relation to other allowed tokens.\n     * @param _stakingToken  The token to be added.\n     */\n    function addStakingToken(uint256 _allocPoint, IERC20 _stakingToken) \n        public \n        onlyOwner \n    {\n        // since owner is able to arbitrarily withdraw reward tokens from the contract\n        // it doesn't allow using the same reward token as a staking token\n        require(address(_stakingToken) != address(rewardToken), \"cannot add reward token as staking token\");\n        require(!stakingTokenIndexes[address(_stakingToken)].added, \"staking token already exists in array\");\n\n        massUpdateTokens();\n        uint256 lastRewardBlock = block.number > startBlock ? block.number : startBlock;\n        totalAllocPoint = totalAllocPoint.add(_allocPoint);\n        stakingTokens.push(StakingToken({\n            stakingToken: _stakingToken,\n            allocPoint: _allocPoint,\n            lastRewardBlock: lastRewardBlock,\n            accRewardPerShare: 0\n        }));\n\n        stakingTokenIndexes[address(_stakingToken)] = TokenIndex({\n            index: stakingTokens.length - 1,\n            added: true\n        });\n\n        emit TokenAdded(address(_stakingToken), _allocPoint);\n    }\n\n    // CHECK STAKING TOKEN ADDED\n    function isStakingToken(IERC20 _token) \n        external \n        view \n        returns (bool) \n    {\n        require(stakingTokenIndexes[address(_token)].added, \"token does not exist in list\");\n        return true;\n    }\n\n    /**\n     * @dev changes the weight allocation for a particular token\n     * @param _token  The token to be configured.\n     * @param _allocPoint  The allocation points set to this token\n     */\n    function set(IERC20 _token, uint256 _allocPoint) \n        public \n        onlyOwner \n    {\n        require(stakingTokenIndexes[address(_token)].added, \"token does not exist in list\");\n        //require(_allocPoint > 0, \"allocation points must be greater than zero\");\n\n        massUpdateTokens();\n        uint256 index = stakingTokenIndexes[address(_token)].index;\n        totalAllocPoint = totalAllocPoint.sub(stakingTokens[index].allocPoint).add(_allocPoint);\n        stakingTokens[index].allocPoint = _allocPoint;\n    }\n\n    /**\n     * @dev gets multiplier factor for possible bonuses within any given period\n     * @param _from  starting block\n     * @param _to  last block of the period\n     */\n    function getMultiplier(uint256 _from, uint256 _to) \n        public \n        view \n        returns (uint256) \n    {\n        _from = _from >= startBlock? _from : startBlock;\n        if (_to <= bonusEndBlock) {\n            return _to.sub(_from).mul(bonusMultiplier);\n        } else if (_from >= bonusEndBlock) {\n            return _to.sub(_from);\n        } else {\n            return bonusEndBlock.sub(_from).mul(bonusMultiplier).add(\n                _to.sub(bonusEndBlock)\n            );\n        }\n    }\n\n    /**\n     * @dev calculates pending reward for a given staking token and a user\n     * @param _token  The staking token\n     * @param _user  The stakeholder \n     */\n    function pendingReward(IERC20 _token, address _user) \n        external \n        view \n        returns (uint256) \n    {\n        require(stakingTokenIndexes[address(_token)].added, \"invalid token\");\n\n        uint256 _pid = stakingTokenIndexes[address(_token)].index;\n        StakingToken storage pool = stakingTokens[_pid];\n\n        UserInfo storage user = userInfo[_pid][_user];\n        uint256 accRewardPerShare = pool.accRewardPerShare;\n        uint256 tokenSupply = pool.stakingToken.balanceOf(address(this));   // <----- counting actual deposits. Anyone can send tokens and dilute everyone's share\n        \n        if (block.number > pool.lastRewardBlock && tokenSupply != 0) {\n            uint256 multiplier = getMultiplier(pool.lastRewardBlock, block.number);\n            uint256 reward = (pool.allocPoint == 0)? 0 : multiplier.mul(rewardPerBlock).mul(pool.allocPoint).div(totalAllocPoint);\n            accRewardPerShare = accRewardPerShare.add(reward.mul(1e12).div(tokenSupply));\n        }\n\n        return user.amount.mul(accRewardPerShare).div(1e12).sub(user.rewardDebt);\n    }\n\n    /**\n     * @dev invokes a checkpoint update on all staking tokens in the list\n     */\n    function massUpdateTokens() \n        public \n    {\n        uint256 length = stakingTokens.length;\n        for (uint256 pid = 0; pid < length; ++pid) {\n            checkpoint(pid);\n        }\n    }\n\n    /**\n     * @dev Calculates all reward rates for all staking tokens since last checkpoint. \n     * Should be called before any balance-changing operations (e.g. deposit, withdraw)\n     * @param _pid  The index of the token in the array of staking tokens\n     */\n    function checkpoint(uint256 _pid) \n        public \n    {\n        require(_pid < stakingTokens.length, \"token index out of bounds\");\n\n        StakingToken storage pool = stakingTokens[_pid];\n        \n        if (block.number <= pool.lastRewardBlock) {\n            return;\n        }\n\n        uint256 stakedSupply = pool.stakingToken.balanceOf(address(this));\n\n        if (stakedSupply == 0) {\n            pool.lastRewardBlock = block.number;\n            return;\n        }\n\n        uint256 multiplier = getMultiplier(pool.lastRewardBlock, block.number);\n        uint256 reward = (pool.allocPoint == 0)? 0 : multiplier.mul(rewardPerBlock).mul(pool.allocPoint).div(totalAllocPoint);\n        \n        //rewardToken.mint(address(this), reward);\n\n        pool.accRewardPerShare = pool.accRewardPerShare.add(reward.mul(1e12).div(stakedSupply));\n        pool.lastRewardBlock = block.number;\n    }\n\n    // GET STAKED TOKEN BALNCE\n    function getBalance(IERC20 _token) \n        external \n        view \n        returns (uint256)\n    {\n        require(stakingTokenIndexes[address(_token)].added, \"invalid token\");\n        uint256 _pid = stakingTokenIndexes[address(_token)].index;\n        UserInfo storage user = userInfo[_pid][msg.sender];\n\n        return user.amount;\n    }\n\n    /**\n     * @dev deposit _amount into a given _token pool\n     * @param _token  The staking token to be deposited\n     * @param _amount  The amount of tokens to be staked\n     */\n    function deposit(IERC20 _token, uint256 _amount) \n        public \n    {\n        require(stakingTokenIndexes[address(_token)].added, \"invalid token\");\n        require(whitelist.isWhitelisted(msg.sender), \"sender address is not eligible\");\n        \n        uint256 _pid = stakingTokenIndexes[address(_token)].index;\n        checkpoint(_pid);\n        StakingToken storage pool = stakingTokens[_pid];\n        UserInfo storage user = userInfo[_pid][msg.sender];\n        uint256 pending = user.amount.mul(pool.accRewardPerShare).div(1e12).sub(user.rewardDebt);\n        user.amount = user.amount.add(_amount);\n\n        uint256 rewardBal = rewardToken.balanceOf(address(this));\n        uint256 diff = 0;\n\n        if (rewardBal < pending) {\n            diff = pending.sub(rewardBal);\n        }\n\n        user.rewardDebt = (user.amount.mul(pool.accRewardPerShare).div(1e12)).sub(diff);\n        \n        safeRewardTransfer(msg.sender, pending);\n        if (_amount > 0) {\n            pool.stakingToken.safeTransferFrom(address(msg.sender), address(this), _amount);\n            emit Deposit(msg.sender, _pid, _amount);\n        }\n    }\n\n    /**\n     * @dev withdraw _amount of a given staking token\n     * @param _token  The staking token to be withdrawn\n     * @param _amount  The amount of tokens to withdraw\n     */\n    function withdraw(IERC20 _token, uint256 _amount) \n        public \n    {\n        require(stakingTokenIndexes[address(_token)].added, \"invalid token\");\n        \n        uint256 _pid = stakingTokenIndexes[address(_token)].index;\n        StakingToken storage pool = stakingTokens[_pid];\n        UserInfo storage user = userInfo[_pid][msg.sender];\n        require(user.amount >= _amount, \"invalid amount specified\");\n\n        checkpoint(_pid);\n        uint256 pending = user.amount.mul(pool.accRewardPerShare).div(1e12).sub(user.rewardDebt);\n        user.amount = user.amount.sub(_amount);\n\n        uint256 rewardBal = rewardToken.balanceOf(address(this));\n        uint256 diff = 0;\n        \n        if (rewardBal < pending) {\n            diff = pending.sub(rewardBal);\n        }\n\n        user.rewardDebt = (user.amount.mul(pool.accRewardPerShare).div(1e12)).sub(diff);\n\n        if(whitelist.isWhitelisted(msg.sender)) {\n            safeRewardTransfer(msg.sender, pending);\n        }\n        \n        if(_amount > 0) {\n            pool.stakingToken.safeTransfer(address(msg.sender), _amount);\n            emit Withdraw(msg.sender, _pid, _amount);\n        }\n    }\n\n    // WITHDRAW TOKENS ONLY\n    function withdrawRewards(IERC20 _token)\n        public\n    {\n        require(stakingTokenIndexes[address(_token)].added, \"invalid token\");\n        \n        uint256 _pid = stakingTokenIndexes[address(_token)].index;\n        StakingToken storage pool = stakingTokens[_pid];\n\n        UserInfo storage user = userInfo[_pid][msg.sender];\n\n        checkpoint(_pid);\n        uint256 pending = user.amount.mul(pool.accRewardPerShare).div(1e12).sub(user.rewardDebt);\n        uint256 rewardBal = rewardToken.balanceOf(address(this));\n        uint256 diff = 0;\n        \n        if (rewardBal < pending) {\n            diff = pending.sub(rewardBal);\n        }\n\n        user.rewardDebt = (user.amount.mul(pool.accRewardPerShare).div(1e12)).sub(diff);\n\n        if(whitelist.isWhitelisted(msg.sender)) {\n            safeRewardTransfer(msg.sender, pending);\n            emit WithdrawRewards(msg.sender, pending);\n        }\n    }\n\n    /**\n     * @dev withdraw all staked funds of a given token, regardless of reward logic\n     * To be used in an emergency case if reward logic fails and tokens would get locked otherwise\n     * @param _token  The staking token to withdraw funds from\n     */\n    function emergencyWithdraw(IERC20 _token) \n        public \n    {\n        require(stakingTokenIndexes[address(_token)].added, \"invalid token\");\n        \n        uint256 _pid = stakingTokenIndexes[address(_token)].index;\n        StakingToken storage pool = stakingTokens[_pid];\n        UserInfo storage user = userInfo[_pid][msg.sender];\n        uint256 _amount = user.amount;\n        user.amount = 0;\n        user.rewardDebt = 0;\n\n        pool.stakingToken.safeTransfer(address(msg.sender), _amount);\n        \n        emit EmergencyWithdraw(msg.sender, _pid, _amount);\n    }\n\n    /**\n     * @dev Internal function to send rewards while checking for potential imbalances\n     * Note: if available reward is less than calculated amount, reward will still take place\n     * And pending reward calculations might \n     * @param _to  the target address of the reward\n     * @param _amount  the amount of reward to transfer\n     */\n    function safeRewardTransfer(address _to, uint256 _amount)\n        internal \n    {\n        uint256 rewardBal = rewardToken.balanceOf(address(this));\n        if (_amount > 0) {\n            if (_amount > rewardBal) {\n                rewardToken.transfer(_to, rewardBal);\n            } else {\n                rewardToken.transfer(_to, _amount);\n            }\n        }\n    }\n\n    /**\n     * @dev Calculate remaining blocks left according to current reward supply and rate\n     * Useful for contract owner to either re-supply or migrate to an alternate reward solution\n     */\n    function rewardBlocksLeft() \n        public\n        view\n        returns (uint256)\n    {\n        uint256 balance = rewardToken.balanceOf(address(this));\n        return balance.div(rewardPerBlock);\n    }\n}",
  "sourcePath": "/Users/altninja/keyfi-token/contracts/RewardPool.sol",
  "compiler": {
    "name": "solc",
    "version": "0.7.5+commit.eb77ed08.Emscripten.clang"
  },
  "schemaVersion": "3.3.2",
  "updatedAt": "2020-11-26T00:05:08.305Z",
  "networkType": "ethereum",
  "devdoc": {
    "details": "Implementation of Reward logic for KEYFI token, based on SushiSwap's MasterChef.",
    "kind": "dev",
    "methods": {
      "addStakingToken(uint256,address)": {
        "details": "adds a token to the list of allowed staking tokens",
        "params": {
          "_allocPoint": " The \"weight\" of this token in relation to other allowed tokens.",
          "_stakingToken": " The token to be added."
        }
      },
      "checkpoint(uint256)": {
        "details": "Calculates all reward rates for all staking tokens since last checkpoint.  Should be called before any balance-changing operations (e.g. deposit, withdraw)",
        "params": {
          "_pid": " The index of the token in the array of staking tokens"
        }
      },
      "deposit(address,uint256)": {
        "details": "deposit _amount into a given _token pool",
        "params": {
          "_amount": " The amount of tokens to be staked",
          "_token": " The staking token to be deposited"
        }
      },
      "emergencyWithdraw(address)": {
        "details": "withdraw all staked funds of a given token, regardless of reward logic To be used in an emergency case if reward logic fails and tokens would get locked otherwise",
        "params": {
          "_token": " The staking token to withdraw funds from"
        }
      },
      "getMultiplier(uint256,uint256)": {
        "details": "gets multiplier factor for possible bonuses within any given period",
        "params": {
          "_from": " starting block",
          "_to": " last block of the period"
        }
      },
      "massUpdateTokens()": {
        "details": "invokes a checkpoint update on all staking tokens in the list"
      },
      "owner()": {
        "details": "Returns the address of the current owner."
      },
      "pendingReward(address,address)": {
        "details": "calculates pending reward for a given staking token and a user",
        "params": {
          "_token": " The staking token",
          "_user": " The stakeholder "
        }
      },
      "renounceOwnership()": {
        "details": "Leaves the contract without owner. It will not be possible to call `onlyOwner` functions anymore. Can only be called by the current owner. NOTE: Renouncing ownership will leave the contract without an owner, thereby removing any functionality that is only available to the owner."
      },
      "rewardBlocksLeft()": {
        "details": "Calculate remaining blocks left according to current reward supply and rate Useful for contract owner to either re-supply or migrate to an alternate reward solution"
      },
      "set(address,uint256)": {
        "details": "changes the weight allocation for a particular token",
        "params": {
          "_allocPoint": " The allocation points set to this token",
          "_token": " The token to be configured."
        }
      },
      "transferOwnership(address)": {
        "details": "Transfers ownership of the contract to a new account (`newOwner`). Can only be called by the current owner."
      },
      "withdraw(address,uint256)": {
        "details": "withdraw _amount of a given staking token",
        "params": {
          "_amount": " The amount of tokens to withdraw",
          "_token": " The staking token to be withdrawn"
        }
      }
    },
    "title": "RewardPool",
    "version": 1
  },
  "userdoc": {
    "kind": "user",
    "methods": {},
    "version": 1
  }
}